{"contracts/HelloWorld.sol":{"HelloWorld":{"abi":[{"inputs":[],"name":"test","outputs":[],"stateMutability":"nonpayable","type":"function"},{"inputs":[],"name":"testData","outputs":[{"internalType":"uint256","name":"","type":"uint256"}],"stateMutability":"view","type":"function"}],"evm":{"bytecode":{"linkReferences":{},"object":"60806040526001600055348015601457600080fd5b50610151806100246000396000f3fe608060405234801561001057600080fd5b50600436106100365760003560e01c8063016cbd511461003b578063f8a8fd6d14610059575b600080fd5b610043610063565b604051610050919061009d565b60405180910390f35b610061610069565b005b60005481565b600160008082825461007b91906100e7565b92505081905550565b6000819050919050565b61009781610084565b82525050565b60006020820190506100b2600083018461008e565b92915050565b7f4e487b7100000000000000000000000000000000000000000000000000000000600052601160045260246000fd5b60006100f282610084565b91506100fd83610084565b9250828201905080821115610115576101146100b8565b5b9291505056fea264697066735822122070c0598d4565d79e820a8fbf592d256da77488875128c1e582fddfc51c70db9b64736f6c634300081c0033","opcodes":"PUSH1 0x80 PUSH1 0x40 MSTORE PUSH1 0x1 PUSH1 0x0 SSTORE CALLVALUE DUP1 ISZERO PUSH1 0x14 JUMPI PUSH1 0x0 DUP1 REVERT JUMPDEST POP PUSH2 0x151 DUP1 PUSH2 0x24 PUSH1 0x0 CODECOPY PUSH1 0x0 RETURN INVALID PUSH1 0x80 PUSH1 0x40 MSTORE CALLVALUE DUP1 ISZERO PUSH2 0x10 JUMPI PUSH1 0x0 DUP1 REVERT JUMPDEST POP PUSH1 0x4 CALLDATASIZE LT PUSH2 0x36 JUMPI PUSH1 0x0 CALLDATALOAD PUSH1 0xE0 SHR DUP1 PUSH4 0x16CBD51 EQ PUSH2 0x3B JUMPI DUP1 PUSH4 0xF8A8FD6D EQ PUSH2 0x59 JUMPI JUMPDEST PUSH1 0x0 DUP1 REVERT JUMPDEST PUSH2 0x43 PUSH2 0x63 JUMP JUMPDEST PUSH1 0x40 MLOAD PUSH2 0x50 SWAP2 SWAP1 PUSH2 0x9D JUMP JUMPDEST PUSH1 0x40 MLOAD DUP1 SWAP2 SUB SWAP1 RETURN JUMPDEST PUSH2 0x61 PUSH2 0x69 JUMP JUMPDEST STOP JUMPDEST PUSH1 0x0 SLOAD DUP2 JUMP JUMPDEST PUSH1 0x1 PUSH1 0x0 DUP1 DUP3 DUP3 SLOAD PUSH2 0x7B SWAP2 SWAP1 PUSH2 0xE7 JUMP JUMPDEST SWAP3 POP POP DUP2 SWAP1 SSTORE POP JUMP JUMPDEST PUSH1 0x0 DUP2 SWAP1 POP SWAP2 SWAP1 POP JUMP JUMPDEST PUSH2 0x97 DUP2 PUSH2 0x84 JUMP JUMPDEST DUP3 MSTORE POP POP JUMP JUMPDEST PUSH1 0x0 PUSH1 0x20 DUP3 ADD SWAP1 POP PUSH2 0xB2 PUSH1 0x0 DUP4 ADD DUP5 PUSH2 0x8E JUMP JUMPDEST SWAP3 SWAP2 POP POP JUMP JUMPDEST PUSH32 0x4E487B7100000000000000000000000000000000000000000000000000000000 PUSH1 0x0 MSTORE PUSH1 0x11 PUSH1 0x4 MSTORE PUSH1 0x24 PUSH1 0x0 REVERT JUMPDEST PUSH1 0x0 PUSH2 0xF2 DUP3 PUSH2 0x84 JUMP JUMPDEST SWAP2 POP PUSH2 0xFD DUP4 PUSH2 0x84 JUMP JUMPDEST SWAP3 POP DUP3 DUP3 ADD SWAP1 POP DUP1 DUP3 GT ISZERO PUSH2 0x115 JUMPI PUSH2 0x114 PUSH2 0xB8 JUMP JUMPDEST JUMPDEST SWAP3 SWAP2 POP POP JUMP INVALID LOG2 PUSH5 0x6970667358 0x22 SLT KECCAK256 PUSH17 0xC0598D4565D79E820A8FBF592D256DA774 DUP9 DUP8 MLOAD 0x28 0xC1 0xE5 DUP3 REVERT 0xDF 0xC5 SHR PUSH17 0xDB9B64736F6C634300081C003300000000 "},"methodIdentifiers":{"test()":"f8a8fd6d","testData()":"016cbd51"}}}}}