{"contracts/Room.sol":{"Room":{"abi":[{"inputs":[{"internalType":"address","name":"_player1","type":"address"},{"internalType":"address","name":"_player2","type":"address"},{"internalType":"uint256","name":"_roundTimeout","type":"uint256"},{"internalType":"uint256","name":"_totalRound","type":"uint256"},{"internalType":"address","name":"_creator","type":"address"},{"internalType":"uint256","name":"_initialHP","type":"uint256"}],"stateMutability":"nonpayable","type":"constructor"},{"anonymous":false,"inputs":[{"indexed":false,"internalType":"uint256","name":"round","type":"uint256"}],"name":"startANewRound","type":"event"},{"anonymous":false,"inputs":[{"indexed":false,"internalType":"address","name":"player","type":"address"},{"indexed":false,"internalType":"string","name":"cards","type":"string"},{"indexed":false,"internalType":"string","name":"salt","type":"string"},{"indexed":false,"internalType":"uint256","name":"round","type":"uint256"}],"name":"submitCards","type":"event"},{"anonymous":false,"inputs":[{"indexed":false,"internalType":"address","name":"player","type":"address"},{"indexed":false,"internalType":"bytes32","name":"cardsHash","type":"bytes32"},{"indexed":false,"internalType":"uint256","name":"round","type":"uint256"}],"name":"submitCardsHash","type":"event"},{"inputs":[],"name":"StartANewRound","outputs":[],"stateMutability":"nonpayable","type":"function"},{"inputs":[{"internalType":"string","name":"_cards","type":"string"},{"internalType":"string","name":"_salt","type":"string"},{"internalType":"uint256","name":"_round","type":"uint256"}],"name":"SubmitCards","outputs":[],"stateMutability":"nonpayable","type":"function"},{"inputs":[{"internalType":"bytes32","name":"_cardsHash","type":"bytes32"},{"internalType":"uint256","name":"_round","type":"uint256"}],"name":"SubmitCardsHash","outputs":[],"stateMutability":"nonpayable","type":"function"},{"inputs":[{"internalType":"uint256","name":"","type":"uint256"},{"internalType":"uint256","name":"","type":"uint256"}],"name":"cardsHash","outputs":[{"internalType":"bytes32","name":"","type":"bytes32"}],"stateMutability":"view","type":"function"},{"inputs":[],"name":"creator","outputs":[{"internalType":"address","name":"","type":"address"}],"stateMutability":"view","type":"function"},{"inputs":[],"name":"currentRound","outputs":[{"internalType":"uint256","name":"","type":"uint256"}],"stateMutability":"view","type":"function"},{"inputs":[],"name":"initialHP","outputs":[{"internalType":"uint256","name":"","type":"uint256"}],"stateMutability":"view","type":"function"},{"inputs":[],"name":"launchTime","outputs":[{"internalType":"uint256","name":"","type":"uint256"}],"stateMutability":"view","type":"function"},{"inputs":[],"name":"player1","outputs":[{"internalType":"address","name":"","type":"address"}],"stateMutability":"view","type":"function"},{"inputs":[],"name":"player2","outputs":[{"internalType":"address","name":"","type":"address"}],"stateMutability":"view","type":"function"},{"inputs":[],"name":"roundTimeout","outputs":[{"internalType":"uint256","name":"","type":"uint256"}],"stateMutability":"view","type":"function"},{"inputs":[],"name":"totalRound","outputs":[{"internalType":"uint256","name":"","type":"uint256"}],"stateMutability":"view","type":"function"}],"evm":{"bytecode":{"linkReferences":{},"object":"608060405234801561001057600080fd5b506040516116a53803806116a5833981810160405281019061003291906101bd565b85600960006101000a81548173ffffffffffffffffffffffffffffffffffffffff021916908373ffffffffffffffffffffffffffffffffffffffff16021790555084600a60006101000a81548173ffffffffffffffffffffffffffffffffffffffff021916908373ffffffffffffffffffffffffffffffffffffffff16021790555083600c819055508260018190555042600b81905550600160008190555081600860006101000a81548173ffffffffffffffffffffffffffffffffffffffff021916908373ffffffffffffffffffffffffffffffffffffffff16021790555080600d8190555050505050505061024a565b600080fd5b600073ffffffffffffffffffffffffffffffffffffffff82169050919050565b600061015482610129565b9050919050565b61016481610149565b811461016f57600080fd5b50565b6000815190506101818161015b565b92915050565b6000819050919050565b61019a81610187565b81146101a557600080fd5b50565b6000815190506101b781610191565b92915050565b60008060008060008060c087890312156101da576101d9610124565b5b60006101e889828a01610172565b96505060206101f989828a01610172565b955050604061020a89828a016101a8565b945050606061021b89828a016101a8565b935050608061022c89828a01610172565b92505060a061023d89828a016101a8565b9150509295509295509295565b61144c806102596000396000f3fe608060405234801561001057600080fd5b50600436106100b45760003560e01c8063790ca41311610071578063790ca413146101695780638a19c8bc14610187578063d0421a28146101a5578063d30895e4146101c3578063dd337a96146101e1578063f187116414610211576100b4565b806302d05d3f146100b9578063263616a1146100d75780632e2ebd23146100f35780632fab33231461010f57806353c298d81461012d57806359a5f12d1461014b575b600080fd5b6100c161021b565b6040516100ce9190610c01565b60405180910390f35b6100f160048036038101906100ec9190610cc1565b610241565b005b61010d60048036038101906101089190610d8c565b6106b3565b005b610117610a44565b6040516101249190610ddb565b60405180910390f35b610135610a4a565b6040516101429190610ddb565b60405180910390f35b610153610a50565b6040516101609190610c01565b60405180910390f35b610171610a76565b60405161017e9190610ddb565b60405180910390f35b61018f610a7c565b60405161019c9190610ddb565b60405180910390f35b6101ad610a82565b6040516101ba9190610ddb565b60405180910390f35b6101cb610a88565b6040516101d89190610c01565b60405180910390f35b6101fb60048036038101906101f69190610df6565b610aae565b6040516102089190610e45565b60405180910390f35b610219610adc565b005b600860009054906101000a900473ffffffffffffffffffffffffffffffffffffffff1681565b600960009054906101000a900473ffffffffffffffffffffffffffffffffffffffff1673ffffffffffffffffffffffffffffffffffffffff163373ffffffffffffffffffffffffffffffffffffffff1614806102ea5750600a60009054906101000a900473ffffffffffffffffffffffffffffffffffffffff1673ffffffffffffffffffffffffffffffffffffffff163373ffffffffffffffffffffffffffffffffffffffff16145b610329576040517f08c379a000000000000000000000000000000000000000000000000000000000815260040161032090610ebd565b60405180910390fd5b6000801b6002600160005461033e9190610f0c565b6003811061034f5761034e610f40565b5b6002020160006002811061036657610365610f40565b5b0154036103a8576040517f08c379a000000000000000000000000000000000000000000000000000000000815260040161039f90610fbb565b60405180910390fd5b6000801b600260016000546103bd9190610f0c565b600381106103ce576103cd610f40565b5b600202016001600281106103e5576103e4610f40565b5b015403610427576040517f08c379a000000000000000000000000000000000000000000000000000000000815260040161041e90611027565b60405180910390fd5b8060005414801561043c575060015460005411155b61047b576040517f08c379a000000000000000000000000000000000000000000000000000000000815260040161047290611093565b60405180910390fd5b600960009054906101000a900473ffffffffffffffffffffffffffffffffffffffff1673ffffffffffffffffffffffffffffffffffffffff163373ffffffffffffffffffffffffffffffffffffffff16036105c057848484846040516020016104e794939291906110f2565b604051602081830303815290604052805190602001206002600160005461050e9190610f0c565b6003811061051f5761051e610f40565b5b6002020160006002811061053657610535610f40565b5b015414610578576040517f08c379a000000000000000000000000000000000000000000000000000000000815260040161056f90611166565b60405180910390fd5b7fb57778228a8340017474c84eeb5d3b73cf06543b74edf776a78011b593e2877933868686866000546040516105b3969594939291906111c4565b60405180910390a16106ac565b848484846040516020016105d794939291906110f2565b60405160208183030381529060405280519060200120600260016000546105fe9190610f0c565b6003811061060f5761060e610f40565b5b6002020160016002811061062657610625610f40565b5b015414610668576040517f08c379a000000000000000000000000000000000000000000000000000000000815260040161065f90611166565b60405180910390fd5b7fb57778228a8340017474c84eeb5d3b73cf06543b74edf776a78011b593e2877933868686866000546040516106a3969594939291906111c4565b60405180910390a15b5050505050565b600960009054906101000a900473ffffffffffffffffffffffffffffffffffffffff1673ffffffffffffffffffffffffffffffffffffffff163373ffffffffffffffffffffffffffffffffffffffff16148061075c5750600a60009054906101000a900473ffffffffffffffffffffffffffffffffffffffff1673ffffffffffffffffffffffffffffffffffffffff163373ffffffffffffffffffffffffffffffffffffffff16145b61079b576040517f08c379a000000000000000000000000000000000000000000000000000000000815260040161079290610ebd565b60405180910390fd5b806000541480156107b0575060015460005411155b6107ef576040517f08c379a00000000000000000000000000000000000000000000000000000000081526004016107e690611093565b60405180910390fd5b600960009054906101000a900473ffffffffffffffffffffffffffffffffffffffff1673ffffffffffffffffffffffffffffffffffffffff163373ffffffffffffffffffffffffffffffffffffffff1603610944576000801b600260016000546108599190610f0c565b6003811061086a57610869610f40565b5b6002020160006002811061088157610880610f40565b5b0154146108c3576040517f08c379a00000000000000000000000000000000000000000000000000000000081526004016108ba9061128d565b60405180910390fd5b81600260016000546108d59190610f0c565b600381106108e6576108e5610f40565b5b600202016000600281106108fd576108fc610f40565b5b01819055507f47d16da20fbc7182e199bf669bb55176ef3a0c4fb2288b85cbe394932e024f3d3383600054604051610937939291906112ad565b60405180910390a1610a40565b6000801b600260016000546109599190610f0c565b6003811061096a57610969610f40565b5b6002020160016002811061098157610980610f40565b5b0154146109c3576040517f08c379a00000000000000000000000000000000000000000000000000000000081526004016109ba90611356565b60405180910390fd5b81600260016000546109d59190610f0c565b600381106109e6576109e5610f40565b5b600202016001600281106109fd576109fc610f40565b5b01819055507f47d16da20fbc7182e199bf669bb55176ef3a0c4fb2288b85cbe394932e024f3d3383600054604051610a37939291906112ad565b60405180910390a15b5050565b600d5481565b600c5481565b600a60009054906101000a900473ffffffffffffffffffffffffffffffffffffffff1681565b600b5481565b60005481565b60015481565b600960009054906101000a900473ffffffffffffffffffffffffffffffffffffffff1681565b60028260038110610abe57600080fd5b600202018160028110610ad057600080fd5b01600091509150505481565b600860009054906101000a900473ffffffffffffffffffffffffffffffffffffffff1673ffffffffffffffffffffffffffffffffffffffff163373ffffffffffffffffffffffffffffffffffffffff1614610b6c576040517f08c379a0000000000000000000000000000000000000000000000000000000008152600401610b63906113c2565b60405180910390fd5b6001600080828254610b7e91906113e2565b925050819055507f2725d08e118f50552c873a88cc6bb7d51493108e351080ca153086d4fcfd74a7600054604051610bb69190610ddb565b60405180910390a1565b600073ffffffffffffffffffffffffffffffffffffffff82169050919050565b6000610beb82610bc0565b9050919050565b610bfb81610be0565b82525050565b6000602082019050610c166000830184610bf2565b92915050565b600080fd5b600080fd5b600080fd5b600080fd5b600080fd5b60008083601f840112610c4b57610c4a610c26565b5b8235905067ffffffffffffffff811115610c6857610c67610c2b565b5b602083019150836001820283011115610c8457610c83610c30565b5b9250929050565b6000819050919050565b610c9e81610c8b565b8114610ca957600080fd5b50565b600081359050610cbb81610c95565b92915050565b600080600080600060608688031215610cdd57610cdc610c1c565b5b600086013567ffffffffffffffff811115610cfb57610cfa610c21565b5b610d0788828901610c35565b9550955050602086013567ffffffffffffffff811115610d2a57610d29610c21565b5b610d3688828901610c35565b93509350506040610d4988828901610cac565b9150509295509295909350565b6000819050919050565b610d6981610d56565b8114610d7457600080fd5b50565b600081359050610d8681610d60565b92915050565b60008060408385031215610da357610da2610c1c565b5b6000610db185828601610d77565b9250506020610dc285828601610cac565b9150509250929050565b610dd581610c8b565b82525050565b6000602082019050610df06000830184610dcc565b92915050565b60008060408385031215610e0d57610e0c610c1c565b5b6000610e1b85828601610cac565b9250506020610e2c85828601610cac565b9150509250929050565b610e3f81610d56565b82525050565b6000602082019050610e5a6000830184610e36565b92915050565b600082825260208201905092915050565b7f696e76616c696420706c61796572000000000000000000000000000000000000600082015250565b6000610ea7600e83610e60565b9150610eb282610e71565b602082019050919050565b60006020820190508181036000830152610ed681610e9a565b9050919050565b7f4e487b7100000000000000000000000000000000000000000000000000000000600052601160045260246000fd5b6000610f1782610c8b565b9150610f2283610c8b565b9250828203905081811115610f3a57610f39610edd565b5b92915050565b7f4e487b7100000000000000000000000000000000000000000000000000000000600052603260045260246000fd5b7f706c6179657231206861736e2774207375626d69747465642063617264730000600082015250565b6000610fa5601e83610e60565b9150610fb082610f6f565b602082019050919050565b60006020820190508181036000830152610fd481610f98565b9050919050565b7f706c6179657232206861736e2774207375626d69747465642063617264730000600082015250565b6000611011601e83610e60565b915061101c82610fdb565b602082019050919050565b6000602082019050818103600083015261104081611004565b9050919050565b7f696e76616c696420726f756e6400000000000000000000000000000000000000600082015250565b600061107d600d83610e60565b915061108882611047565b602082019050919050565b600060208201905081810360008301526110ac81611070565b9050919050565b600081905092915050565b82818337600083830152505050565b60006110d983856110b3565b93506110e68385846110be565b82840190509392505050565b60006110ff8286886110cd565b915061110c8284866110cd565b915081905095945050505050565b7f696e76616c696420636172647300000000000000000000000000000000000000600082015250565b6000611150600d83610e60565b915061115b8261111a565b602082019050919050565b6000602082019050818103600083015261117f81611143565b9050919050565b6000601f19601f8301169050919050565b60006111a38385610e60565b93506111b08385846110be565b6111b983611186565b840190509392505050565b60006080820190506111d96000830189610bf2565b81810360208301526111ec818789611197565b90508181036040830152611201818587611197565b90506112106060830184610dcc565b979650505050505050565b7f706c61796572312068617320616c7265616479207375626d697474656420636160008201527f7264732068617368000000000000000000000000000000000000000000000000602082015250565b6000611277602883610e60565b91506112828261121b565b604082019050919050565b600060208201905081810360008301526112a68161126a565b9050919050565b60006060820190506112c26000830186610bf2565b6112cf6020830185610e36565b6112dc6040830184610dcc565b949350505050565b7f706c61796572322068617320616c7265616479207375626d697474656420636160008201527f7264732068617368000000000000000000000000000000000000000000000000602082015250565b6000611340602883610e60565b915061134b826112e4565b604082019050919050565b6000602082019050818103600083015261136f81611333565b9050919050565b7f696e76616c69642063726561746f720000000000000000000000000000000000600082015250565b60006113ac600f83610e60565b91506113b782611376565b602082019050919050565b600060208201905081810360008301526113db8161139f565b9050919050565b60006113ed82610c8b565b91506113f883610c8b565b92508282019050808211156114105761140f610edd565b5b9291505056fea2646970667358221220461c3e374af8ca66f142f0e84f2aae5949597facf61acf4dab89e887d2bce82764736f6c634300081c0033","opcodes":"PUSH1 0x80 PUSH1 0x40 MSTORE CALLVALUE DUP1 ISZERO PUSH2 0x10 JUMPI PUSH1 0x0 DUP1 REVERT JUMPDEST POP PUSH1 0x40 MLOAD PUSH2 0x16A5 CODESIZE SUB DUP1 PUSH2 0x16A5 DUP4 CODECOPY DUP2 DUP2 ADD PUSH1 0x40 MSTORE DUP2 ADD SWAP1 PUSH2 0x32 SWAP2 SWAP1 PUSH2 0x1BD JUMP JUMPDEST DUP6 PUSH1 0x9 PUSH1 0x0 PUSH2 0x100 EXP DUP2 SLOAD DUP2 PUSH20 0xFFFFFFFFFFFFFFFFFFFFFFFFFFFFFFFFFFFFFFFF MUL NOT AND SWAP1 DUP4 PUSH20 0xFFFFFFFFFFFFFFFFFFFFFFFFFFFFFFFFFFFFFFFF AND MUL OR SWAP1 SSTORE POP DUP5 PUSH1 0xA PUSH1 0x0 PUSH2 0x100 EXP DUP2 SLOAD DUP2 PUSH20 0xFFFFFFFFFFFFFFFFFFFFFFFFFFFFFFFFFFFFFFFF MUL NOT AND SWAP1 DUP4 PUSH20 0xFFFFFFFFFFFFFFFFFFFFFFFFFFFFFFFFFFFFFFFF AND MUL OR SWAP1 SSTORE POP DUP4 PUSH1 0xC DUP2 SWAP1 SSTORE POP DUP3 PUSH1 0x1 DUP2 SWAP1 SSTORE POP TIMESTAMP PUSH1 0xB DUP2 SWAP1 SSTORE POP PUSH1 0x1 PUSH1 0x0 DUP2 SWAP1 SSTORE POP DUP2 PUSH1 0x8 PUSH1 0x0 PUSH2 0x100 EXP DUP2 SLOAD DUP2 PUSH20 0xFFFFFFFFFFFFFFFFFFFFFFFFFFFFFFFFFFFFFFFF MUL NOT AND SWAP1 DUP4 PUSH20 0xFFFFFFFFFFFFFFFFFFFFFFFFFFFFFFFFFFFFFFFF AND MUL OR SWAP1 SSTORE POP DUP1 PUSH1 0xD DUP2 SWAP1 SSTORE POP POP POP POP POP POP POP PUSH2 0x24A JUMP JUMPDEST PUSH1 0x0 DUP1 REVERT JUMPDEST PUSH1 0x0 PUSH20 0xFFFFFFFFFFFFFFFFFFFFFFFFFFFFFFFFFFFFFFFF DUP3 AND SWAP1 POP SWAP2 SWAP1 POP JUMP JUMPDEST PUSH1 0x0 PUSH2 0x154 DUP3 PUSH2 0x129 JUMP JUMPDEST SWAP1 POP SWAP2 SWAP1 POP JUMP JUMPDEST PUSH2 0x164 DUP2 PUSH2 0x149 JUMP JUMPDEST DUP2 EQ PUSH2 0x16F JUMPI PUSH1 0x0 DUP1 REVERT JUMPDEST POP JUMP JUMPDEST PUSH1 0x0 DUP2 MLOAD SWAP1 POP PUSH2 0x181 DUP2 PUSH2 0x15B JUMP JUMPDEST SWAP3 SWAP2 POP POP JUMP JUMPDEST PUSH1 0x0 DUP2 SWAP1 POP SWAP2 SWAP1 POP JUMP JUMPDEST PUSH2 0x19A DUP2 PUSH2 0x187 JUMP JUMPDEST DUP2 EQ PUSH2 0x1A5 JUMPI PUSH1 0x0 DUP1 REVERT JUMPDEST POP JUMP JUMPDEST PUSH1 0x0 DUP2 MLOAD SWAP1 POP PUSH2 0x1B7 DUP2 PUSH2 0x191 JUMP JUMPDEST SWAP3 SWAP2 POP POP JUMP JUMPDEST PUSH1 0x0 DUP1 PUSH1 0x0 DUP1 PUSH1 0x0 DUP1 PUSH1 0xC0 DUP8 DUP10 SUB SLT ISZERO PUSH2 0x1DA JUMPI PUSH2 0x1D9 PUSH2 0x124 JUMP JUMPDEST JUMPDEST PUSH1 0x0 PUSH2 0x1E8 DUP10 DUP3 DUP11 ADD PUSH2 0x172 JUMP JUMPDEST SWAP7 POP POP PUSH1 0x20 PUSH2 0x1F9 DUP10 DUP3 DUP11 ADD PUSH2 0x172 JUMP JUMPDEST SWAP6 POP POP PUSH1 0x40 PUSH2 0x20A DUP10 DUP3 DUP11 ADD PUSH2 0x1A8 JUMP JUMPDEST SWAP5 POP POP PUSH1 0x60 PUSH2 0x21B DUP10 DUP3 DUP11 ADD PUSH2 0x1A8 JUMP JUMPDEST SWAP4 POP POP PUSH1 0x80 PUSH2 0x22C DUP10 DUP3 DUP11 ADD PUSH2 0x172 JUMP JUMPDEST SWAP3 POP POP PUSH1 0xA0 PUSH2 0x23D DUP10 DUP3 DUP11 ADD PUSH2 0x1A8 JUMP JUMPDEST SWAP2 POP POP SWAP3 SWAP6 POP SWAP3 SWAP6 POP SWAP3 SWAP6 JUMP JUMPDEST PUSH2 0x144C DUP1 PUSH2 0x259 PUSH1 0x0 CODECOPY PUSH1 0x0 RETURN INVALID PUSH1 0x80 PUSH1 0x40 MSTORE CALLVALUE DUP1 ISZERO PUSH2 0x10 JUMPI PUSH1 0x0 DUP1 REVERT JUMPDEST POP PUSH1 0x4 CALLDATASIZE LT PUSH2 0xB4 JUMPI PUSH1 0x0 CALLDATALOAD PUSH1 0xE0 SHR DUP1 PUSH4 0x790CA413 GT PUSH2 0x71 JUMPI DUP1 PUSH4 0x790CA413 EQ PUSH2 0x169 JUMPI DUP1 PUSH4 0x8A19C8BC EQ PUSH2 0x187 JUMPI DUP1 PUSH4 0xD0421A28 EQ PUSH2 0x1A5 JUMPI DUP1 PUSH4 0xD30895E4 EQ PUSH2 0x1C3 JUMPI DUP1 PUSH4 0xDD337A96 EQ PUSH2 0x1E1 JUMPI DUP1 PUSH4 0xF1871164 EQ PUSH2 0x211 JUMPI PUSH2 0xB4 JUMP JUMPDEST DUP1 PUSH4 0x2D05D3F EQ PUSH2 0xB9 JUMPI DUP1 PUSH4 0x263616A1 EQ PUSH2 0xD7 JUMPI DUP1 PUSH4 0x2E2EBD23 EQ PUSH2 0xF3 JUMPI DUP1 PUSH4 0x2FAB3323 EQ PUSH2 0x10F JUMPI DUP1 PUSH4 0x53C298D8 EQ PUSH2 0x12D JUMPI DUP1 PUSH4 0x59A5F12D EQ PUSH2 0x14B JUMPI JUMPDEST PUSH1 0x0 DUP1 REVERT JUMPDEST PUSH2 0xC1 PUSH2 0x21B JUMP JUMPDEST PUSH1 0x40 MLOAD PUSH2 0xCE SWAP2 SWAP1 PUSH2 0xC01 JUMP JUMPDEST PUSH1 0x40 MLOAD DUP1 SWAP2 SUB SWAP1 RETURN JUMPDEST PUSH2 0xF1 PUSH1 0x4 DUP1 CALLDATASIZE SUB DUP2 ADD SWAP1 PUSH2 0xEC SWAP2 SWAP1 PUSH2 0xCC1 JUMP JUMPDEST PUSH2 0x241 JUMP JUMPDEST STOP JUMPDEST PUSH2 0x10D PUSH1 0x4 DUP1 CALLDATASIZE SUB DUP2 ADD SWAP1 PUSH2 0x108 SWAP2 SWAP1 PUSH2 0xD8C JUMP JUMPDEST PUSH2 0x6B3 JUMP JUMPDEST STOP JUMPDEST PUSH2 0x117 PUSH2 0xA44 JUMP JUMPDEST PUSH1 0x40 MLOAD PUSH2 0x124 SWAP2 SWAP1 PUSH2 0xDDB JUMP JUMPDEST PUSH1 0x40 MLOAD DUP1 SWAP2 SUB SWAP1 RETURN JUMPDEST PUSH2 0x135 PUSH2 0xA4A JUMP JUMPDEST PUSH1 0x40 MLOAD PUSH2 0x142 SWAP2 SWAP1 PUSH2 0xDDB JUMP JUMPDEST PUSH1 0x40 MLOAD DUP1 SWAP2 SUB SWAP1 RETURN JUMPDEST PUSH2 0x153 PUSH2 0xA50 JUMP JUMPDEST PUSH1 0x40 MLOAD PUSH2 0x160 SWAP2 SWAP1 PUSH2 0xC01 JUMP JUMPDEST PUSH1 0x40 MLOAD DUP1 SWAP2 SUB SWAP1 RETURN JUMPDEST PUSH2 0x171 PUSH2 0xA76 JUMP JUMPDEST PUSH1 0x40 MLOAD PUSH2 0x17E SWAP2 SWAP1 PUSH2 0xDDB JUMP JUMPDEST PUSH1 0x40 MLOAD DUP1 SWAP2 SUB SWAP1 RETURN JUMPDEST PUSH2 0x18F PUSH2 0xA7C JUMP JUMPDEST PUSH1 0x40 MLOAD PUSH2 0x19C SWAP2 SWAP1 PUSH2 0xDDB JUMP JUMPDEST PUSH1 0x40 MLOAD DUP1 SWAP2 SUB SWAP1 RETURN JUMPDEST PUSH2 0x1AD PUSH2 0xA82 JUMP JUMPDEST PUSH1 0x40 MLOAD PUSH2 0x1BA SWAP2 SWAP1 PUSH2 0xDDB JUMP JUMPDEST PUSH1 0x40 MLOAD DUP1 SWAP2 SUB SWAP1 RETURN JUMPDEST PUSH2 0x1CB PUSH2 0xA88 JUMP JUMPDEST PUSH1 0x40 MLOAD PUSH2 0x1D8 SWAP2 SWAP1 PUSH2 0xC01 JUMP JUMPDEST PUSH1 0x40 MLOAD DUP1 SWAP2 SUB SWAP1 RETURN JUMPDEST PUSH2 0x1FB PUSH1 0x4 DUP1 CALLDATASIZE SUB DUP2 ADD SWAP1 PUSH2 0x1F6 SWAP2 SWAP1 PUSH2 0xDF6 JUMP JUMPDEST PUSH2 0xAAE JUMP JUMPDEST PUSH1 0x40 MLOAD PUSH2 0x208 SWAP2 SWAP1 PUSH2 0xE45 JUMP JUMPDEST PUSH1 0x40 MLOAD DUP1 SWAP2 SUB SWAP1 RETURN JUMPDEST PUSH2 0x219 PUSH2 0xADC JUMP JUMPDEST STOP JUMPDEST PUSH1 0x8 PUSH1 0x0 SWAP1 SLOAD SWAP1 PUSH2 0x100 EXP SWAP1 DIV PUSH20 0xFFFFFFFFFFFFFFFFFFFFFFFFFFFFFFFFFFFFFFFF AND DUP2 JUMP JUMPDEST PUSH1 0x9 PUSH1 0x0 SWAP1 SLOAD SWAP1 PUSH2 0x100 EXP SWAP1 DIV PUSH20 0xFFFFFFFFFFFFFFFFFFFFFFFFFFFFFFFFFFFFFFFF AND PUSH20 0xFFFFFFFFFFFFFFFFFFFFFFFFFFFFFFFFFFFFFFFF AND CALLER PUSH20 0xFFFFFFFFFFFFFFFFFFFFFFFFFFFFFFFFFFFFFFFF AND EQ DUP1 PUSH2 0x2EA JUMPI POP PUSH1 0xA PUSH1 0x0 SWAP1 SLOAD SWAP1 PUSH2 0x100 EXP SWAP1 DIV PUSH20 0xFFFFFFFFFFFFFFFFFFFFFFFFFFFFFFFFFFFFFFFF AND PUSH20 0xFFFFFFFFFFFFFFFFFFFFFFFFFFFFFFFFFFFFFFFF AND CALLER PUSH20 0xFFFFFFFFFFFFFFFFFFFFFFFFFFFFFFFFFFFFFFFF AND EQ JUMPDEST PUSH2 0x329 JUMPI PUSH1 0x40 MLOAD PUSH32 0x8C379A000000000000000000000000000000000000000000000000000000000 DUP2 MSTORE PUSH1 0x4 ADD PUSH2 0x320 SWAP1 PUSH2 0xEBD JUMP JUMPDEST PUSH1 0x40 MLOAD DUP1 SWAP2 SUB SWAP1 REVERT JUMPDEST PUSH1 0x0 DUP1 SHL PUSH1 0x2 PUSH1 0x1 PUSH1 0x0 SLOAD PUSH2 0x33E SWAP2 SWAP1 PUSH2 0xF0C JUMP JUMPDEST PUSH1 0x3 DUP2 LT PUSH2 0x34F JUMPI PUSH2 0x34E PUSH2 0xF40 JUMP JUMPDEST JUMPDEST PUSH1 0x2 MUL ADD PUSH1 0x0 PUSH1 0x2 DUP2 LT PUSH2 0x366 JUMPI PUSH2 0x365 PUSH2 0xF40 JUMP JUMPDEST JUMPDEST ADD SLOAD SUB PUSH2 0x3A8 JUMPI PUSH1 0x40 MLOAD PUSH32 0x8C379A000000000000000000000000000000000000000000000000000000000 DUP2 MSTORE PUSH1 0x4 ADD PUSH2 0x39F SWAP1 PUSH2 0xFBB JUMP JUMPDEST PUSH1 0x40 MLOAD DUP1 SWAP2 SUB SWAP1 REVERT JUMPDEST PUSH1 0x0 DUP1 SHL PUSH1 0x2 PUSH1 0x1 PUSH1 0x0 SLOAD PUSH2 0x3BD SWAP2 SWAP1 PUSH2 0xF0C JUMP JUMPDEST PUSH1 0x3 DUP2 LT PUSH2 0x3CE JUMPI PUSH2 0x3CD PUSH2 0xF40 JUMP JUMPDEST JUMPDEST PUSH1 0x2 MUL ADD PUSH1 0x1 PUSH1 0x2 DUP2 LT PUSH2 0x3E5 JUMPI PUSH2 0x3E4 PUSH2 0xF40 JUMP JUMPDEST JUMPDEST ADD SLOAD SUB PUSH2 0x427 JUMPI PUSH1 0x40 MLOAD PUSH32 0x8C379A000000000000000000000000000000000000000000000000000000000 DUP2 MSTORE PUSH1 0x4 ADD PUSH2 0x41E SWAP1 PUSH2 0x1027 JUMP JUMPDEST PUSH1 0x40 MLOAD DUP1 SWAP2 SUB SWAP1 REVERT JUMPDEST DUP1 PUSH1 0x0 SLOAD EQ DUP1 ISZERO PUSH2 0x43C JUMPI POP PUSH1 0x1 SLOAD PUSH1 0x0 SLOAD GT ISZERO JUMPDEST PUSH2 0x47B JUMPI PUSH1 0x40 MLOAD PUSH32 0x8C379A000000000000000000000000000000000000000000000000000000000 DUP2 MSTORE PUSH1 0x4 ADD PUSH2 0x472 SWAP1 PUSH2 0x1093 JUMP JUMPDEST PUSH1 0x40 MLOAD DUP1 SWAP2 SUB SWAP1 REVERT JUMPDEST PUSH1 0x9 PUSH1 0x0 SWAP1 SLOAD SWAP1 PUSH2 0x100 EXP SWAP1 DIV PUSH20 0xFFFFFFFFFFFFFFFFFFFFFFFFFFFFFFFFFFFFFFFF AND PUSH20 0xFFFFFFFFFFFFFFFFFFFFFFFFFFFFFFFFFFFFFFFF AND CALLER PUSH20 0xFFFFFFFFFFFFFFFFFFFFFFFFFFFFFFFFFFFFFFFF AND SUB PUSH2 0x5C0 JUMPI DUP5 DUP5 DUP5 DUP5 PUSH1 0x40 MLOAD PUSH1 0x20 ADD PUSH2 0x4E7 SWAP5 SWAP4 SWAP3 SWAP2 SWAP1 PUSH2 0x10F2 JUMP JUMPDEST PUSH1 0x40 MLOAD PUSH1 0x20 DUP2 DUP4 SUB SUB DUP2 MSTORE SWAP1 PUSH1 0x40 MSTORE DUP1 MLOAD SWAP1 PUSH1 0x20 ADD KECCAK256 PUSH1 0x2 PUSH1 0x1 PUSH1 0x0 SLOAD PUSH2 0x50E SWAP2 SWAP1 PUSH2 0xF0C JUMP JUMPDEST PUSH1 0x3 DUP2 LT PUSH2 0x51F JUMPI PUSH2 0x51E PUSH2 0xF40 JUMP JUMPDEST JUMPDEST PUSH1 0x2 MUL ADD PUSH1 0x0 PUSH1 0x2 DUP2 LT PUSH2 0x536 JUMPI PUSH2 0x535 PUSH2 0xF40 JUMP JUMPDEST JUMPDEST ADD SLOAD EQ PUSH2 0x578 JUMPI PUSH1 0x40 MLOAD PUSH32 0x8C379A000000000000000000000000000000000000000000000000000000000 DUP2 MSTORE PUSH1 0x4 ADD PUSH2 0x56F SWAP1 PUSH2 0x1166 JUMP JUMPDEST PUSH1 0x40 MLOAD DUP1 SWAP2 SUB SWAP1 REVERT JUMPDEST PUSH32 0xB57778228A8340017474C84EEB5D3B73CF06543B74EDF776A78011B593E28779 CALLER DUP7 DUP7 DUP7 DUP7 PUSH1 0x0 SLOAD PUSH1 0x40 MLOAD PUSH2 0x5B3 SWAP7 SWAP6 SWAP5 SWAP4 SWAP3 SWAP2 SWAP1 PUSH2 0x11C4 JUMP JUMPDEST PUSH1 0x40 MLOAD DUP1 SWAP2 SUB SWAP1 LOG1 PUSH2 0x6AC JUMP JUMPDEST DUP5 DUP5 DUP5 DUP5 PUSH1 0x40 MLOAD PUSH1 0x20 ADD PUSH2 0x5D7 SWAP5 SWAP4 SWAP3 SWAP2 SWAP1 PUSH2 0x10F2 JUMP JUMPDEST PUSH1 0x40 MLOAD PUSH1 0x20 DUP2 DUP4 SUB SUB DUP2 MSTORE SWAP1 PUSH1 0x40 MSTORE DUP1 MLOAD SWAP1 PUSH1 0x20 ADD KECCAK256 PUSH1 0x2 PUSH1 0x1 PUSH1 0x0 SLOAD PUSH2 0x5FE SWAP2 SWAP1 PUSH2 0xF0C JUMP JUMPDEST PUSH1 0x3 DUP2 LT PUSH2 0x60F JUMPI PUSH2 0x60E PUSH2 0xF40 JUMP JUMPDEST JUMPDEST PUSH1 0x2 MUL ADD PUSH1 0x1 PUSH1 0x2 DUP2 LT PUSH2 0x626 JUMPI PUSH2 0x625 PUSH2 0xF40 JUMP JUMPDEST JUMPDEST ADD SLOAD EQ PUSH2 0x668 JUMPI PUSH1 0x40 MLOAD PUSH32 0x8C379A000000000000000000000000000000000000000000000000000000000 DUP2 MSTORE PUSH1 0x4 ADD PUSH2 0x65F SWAP1 PUSH2 0x1166 JUMP JUMPDEST PUSH1 0x40 MLOAD DUP1 SWAP2 SUB SWAP1 REVERT JUMPDEST PUSH32 0xB57778228A8340017474C84EEB5D3B73CF06543B74EDF776A78011B593E28779 CALLER DUP7 DUP7 DUP7 DUP7 PUSH1 0x0 SLOAD PUSH1 0x40 MLOAD PUSH2 0x6A3 SWAP7 SWAP6 SWAP5 SWAP4 SWAP3 SWAP2 SWAP1 PUSH2 0x11C4 JUMP JUMPDEST PUSH1 0x40 MLOAD DUP1 SWAP2 SUB SWAP1 LOG1 JUMPDEST POP POP POP POP POP JUMP JUMPDEST PUSH1 0x9 PUSH1 0x0 SWAP1 SLOAD SWAP1 PUSH2 0x100 EXP SWAP1 DIV PUSH20 0xFFFFFFFFFFFFFFFFFFFFFFFFFFFFFFFFFFFFFFFF AND PUSH20 0xFFFFFFFFFFFFFFFFFFFFFFFFFFFFFFFFFFFFFFFF AND CALLER PUSH20 0xFFFFFFFFFFFFFFFFFFFFFFFFFFFFFFFFFFFFFFFF AND EQ DUP1 PUSH2 0x75C JUMPI POP PUSH1 0xA PUSH1 0x0 SWAP1 SLOAD SWAP1 PUSH2 0x100 EXP SWAP1 DIV PUSH20 0xFFFFFFFFFFFFFFFFFFFFFFFFFFFFFFFFFFFFFFFF AND PUSH20 0xFFFFFFFFFFFFFFFFFFFFFFFFFFFFFFFFFFFFFFFF AND CALLER PUSH20 0xFFFFFFFFFFFFFFFFFFFFFFFFFFFFFFFFFFFFFFFF AND EQ JUMPDEST PUSH2 0x79B JUMPI PUSH1 0x40 MLOAD PUSH32 0x8C379A000000000000000000000000000000000000000000000000000000000 DUP2 MSTORE PUSH1 0x4 ADD PUSH2 0x792 SWAP1 PUSH2 0xEBD JUMP JUMPDEST PUSH1 0x40 MLOAD DUP1 SWAP2 SUB SWAP1 REVERT JUMPDEST DUP1 PUSH1 0x0 SLOAD EQ DUP1 ISZERO PUSH2 0x7B0 JUMPI POP PUSH1 0x1 SLOAD PUSH1 0x0 SLOAD GT ISZERO JUMPDEST PUSH2 0x7EF JUMPI PUSH1 0x40 MLOAD PUSH32 0x8C379A000000000000000000000000000000000000000000000000000000000 DUP2 MSTORE PUSH1 0x4 ADD PUSH2 0x7E6 SWAP1 PUSH2 0x1093 JUMP JUMPDEST PUSH1 0x40 MLOAD DUP1 SWAP2 SUB SWAP1 REVERT JUMPDEST PUSH1 0x9 PUSH1 0x0 SWAP1 SLOAD SWAP1 PUSH2 0x100 EXP SWAP1 DIV PUSH20 0xFFFFFFFFFFFFFFFFFFFFFFFFFFFFFFFFFFFFFFFF AND PUSH20 0xFFFFFFFFFFFFFFFFFFFFFFFFFFFFFFFFFFFFFFFF AND CALLER PUSH20 0xFFFFFFFFFFFFFFFFFFFFFFFFFFFFFFFFFFFFFFFF AND SUB PUSH2 0x944 JUMPI PUSH1 0x0 DUP1 SHL PUSH1 0x2 PUSH1 0x1 PUSH1 0x0 SLOAD PUSH2 0x859 SWAP2 SWAP1 PUSH2 0xF0C JUMP JUMPDEST PUSH1 0x3 DUP2 LT PUSH2 0x86A JUMPI PUSH2 0x869 PUSH2 0xF40 JUMP JUMPDEST JUMPDEST PUSH1 0x2 MUL ADD PUSH1 0x0 PUSH1 0x2 DUP2 LT PUSH2 0x881 JUMPI PUSH2 0x880 PUSH2 0xF40 JUMP JUMPDEST JUMPDEST ADD SLOAD EQ PUSH2 0x8C3 JUMPI PUSH1 0x40 MLOAD PUSH32 0x8C379A000000000000000000000000000000000000000000000000000000000 DUP2 MSTORE PUSH1 0x4 ADD PUSH2 0x8BA SWAP1 PUSH2 0x128D JUMP JUMPDEST PUSH1 0x40 MLOAD DUP1 SWAP2 SUB SWAP1 REVERT JUMPDEST DUP2 PUSH1 0x2 PUSH1 0x1 PUSH1 0x0 SLOAD PUSH2 0x8D5 SWAP2 SWAP1 PUSH2 0xF0C JUMP JUMPDEST PUSH1 0x3 DUP2 LT PUSH2 0x8E6 JUMPI PUSH2 0x8E5 PUSH2 0xF40 JUMP JUMPDEST JUMPDEST PUSH1 0x2 MUL ADD PUSH1 0x0 PUSH1 0x2 DUP2 LT PUSH2 0x8FD JUMPI PUSH2 0x8FC PUSH2 0xF40 JUMP JUMPDEST JUMPDEST ADD DUP2 SWAP1 SSTORE POP PUSH32 0x47D16DA20FBC7182E199BF669BB55176EF3A0C4FB2288B85CBE394932E024F3D CALLER DUP4 PUSH1 0x0 SLOAD PUSH1 0x40 MLOAD PUSH2 0x937 SWAP4 SWAP3 SWAP2 SWAP1 PUSH2 0x12AD JUMP JUMPDEST PUSH1 0x40 MLOAD DUP1 SWAP2 SUB SWAP1 LOG1 PUSH2 0xA40 JUMP JUMPDEST PUSH1 0x0 DUP1 SHL PUSH1 0x2 PUSH1 0x1 PUSH1 0x0 SLOAD PUSH2 0x959 SWAP2 SWAP1 PUSH2 0xF0C JUMP JUMPDEST PUSH1 0x3 DUP2 LT PUSH2 0x96A JUMPI PUSH2 0x969 PUSH2 0xF40 JUMP JUMPDEST JUMPDEST PUSH1 0x2 MUL ADD PUSH1 0x1 PUSH1 0x2 DUP2 LT PUSH2 0x981 JUMPI PUSH2 0x980 PUSH2 0xF40 JUMP JUMPDEST JUMPDEST ADD SLOAD EQ PUSH2 0x9C3 JUMPI PUSH1 0x40 MLOAD PUSH32 0x8C379A000000000000000000000000000000000000000000000000000000000 DUP2 MSTORE PUSH1 0x4 ADD PUSH2 0x9BA SWAP1 PUSH2 0x1356 JUMP JUMPDEST PUSH1 0x40 MLOAD DUP1 SWAP2 SUB SWAP1 REVERT JUMPDEST DUP2 PUSH1 0x2 PUSH1 0x1 PUSH1 0x0 SLOAD PUSH2 0x9D5 SWAP2 SWAP1 PUSH2 0xF0C JUMP JUMPDEST PUSH1 0x3 DUP2 LT PUSH2 0x9E6 JUMPI PUSH2 0x9E5 PUSH2 0xF40 JUMP JUMPDEST JUMPDEST PUSH1 0x2 MUL ADD PUSH1 0x1 PUSH1 0x2 DUP2 LT PUSH2 0x9FD JUMPI PUSH2 0x9FC PUSH2 0xF40 JUMP JUMPDEST JUMPDEST ADD DUP2 SWAP1 SSTORE POP PUSH32 0x47D16DA20FBC7182E199BF669BB55176EF3A0C4FB2288B85CBE394932E024F3D CALLER DUP4 PUSH1 0x0 SLOAD PUSH1 0x40 MLOAD PUSH2 0xA37 SWAP4 SWAP3 SWAP2 SWAP1 PUSH2 0x12AD JUMP JUMPDEST PUSH1 0x40 MLOAD DUP1 SWAP2 SUB SWAP1 LOG1 JUMPDEST POP POP JUMP JUMPDEST PUSH1 0xD SLOAD DUP2 JUMP JUMPDEST PUSH1 0xC SLOAD DUP2 JUMP JUMPDEST PUSH1 0xA PUSH1 0x0 SWAP1 SLOAD SWAP1 PUSH2 0x100 EXP SWAP1 DIV PUSH20 0xFFFFFFFFFFFFFFFFFFFFFFFFFFFFFFFFFFFFFFFF AND DUP2 JUMP JUMPDEST PUSH1 0xB SLOAD DUP2 JUMP JUMPDEST PUSH1 0x0 SLOAD DUP2 JUMP JUMPDEST PUSH1 0x1 SLOAD DUP2 JUMP JUMPDEST PUSH1 0x9 PUSH1 0x0 SWAP1 SLOAD SWAP1 PUSH2 0x100 EXP SWAP1 DIV PUSH20 0xFFFFFFFFFFFFFFFFFFFFFFFFFFFFFFFFFFFFFFFF AND DUP2 JUMP JUMPDEST PUSH1 0x2 DUP3 PUSH1 0x3 DUP2 LT PUSH2 0xABE JUMPI PUSH1 0x0 DUP1 REVERT JUMPDEST PUSH1 0x2 MUL ADD DUP2 PUSH1 0x2 DUP2 LT PUSH2 0xAD0 JUMPI PUSH1 0x0 DUP1 REVERT JUMPDEST ADD PUSH1 0x0 SWAP2 POP SWAP2 POP POP SLOAD DUP2 JUMP JUMPDEST PUSH1 0x8 PUSH1 0x0 SWAP1 SLOAD SWAP1 PUSH2 0x100 EXP SWAP1 DIV PUSH20 0xFFFFFFFFFFFFFFFFFFFFFFFFFFFFFFFFFFFFFFFF AND PUSH20 0xFFFFFFFFFFFFFFFFFFFFFFFFFFFFFFFFFFFFFFFF AND CALLER PUSH20 0xFFFFFFFFFFFFFFFFFFFFFFFFFFFFFFFFFFFFFFFF AND EQ PUSH2 0xB6C JUMPI PUSH1 0x40 MLOAD PUSH32 0x8C379A000000000000000000000000000000000000000000000000000000000 DUP2 MSTORE PUSH1 0x4 ADD PUSH2 0xB63 SWAP1 PUSH2 0x13C2 JUMP JUMPDEST PUSH1 0x40 MLOAD DUP1 SWAP2 SUB SWAP1 REVERT JUMPDEST PUSH1 0x1 PUSH1 0x0 DUP1 DUP3 DUP3 SLOAD PUSH2 0xB7E SWAP2 SWAP1 PUSH2 0x13E2 JUMP JUMPDEST SWAP3 POP POP DUP2 SWAP1 SSTORE POP PUSH32 0x2725D08E118F50552C873A88CC6BB7D51493108E351080CA153086D4FCFD74A7 PUSH1 0x0 SLOAD PUSH1 0x40 MLOAD PUSH2 0xBB6 SWAP2 SWAP1 PUSH2 0xDDB JUMP JUMPDEST PUSH1 0x40 MLOAD DUP1 SWAP2 SUB SWAP1 LOG1 JUMP JUMPDEST PUSH1 0x0 PUSH20 0xFFFFFFFFFFFFFFFFFFFFFFFFFFFFFFFFFFFFFFFF DUP3 AND SWAP1 POP SWAP2 SWAP1 POP JUMP JUMPDEST PUSH1 0x0 PUSH2 0xBEB DUP3 PUSH2 0xBC0 JUMP JUMPDEST SWAP1 POP SWAP2 SWAP1 POP JUMP JUMPDEST PUSH2 0xBFB DUP2 PUSH2 0xBE0 JUMP JUMPDEST DUP3 MSTORE POP POP JUMP JUMPDEST PUSH1 0x0 PUSH1 0x20 DUP3 ADD SWAP1 POP PUSH2 0xC16 PUSH1 0x0 DUP4 ADD DUP5 PUSH2 0xBF2 JUMP JUMPDEST SWAP3 SWAP2 POP POP JUMP JUMPDEST PUSH1 0x0 DUP1 REVERT JUMPDEST PUSH1 0x0 DUP1 REVERT JUMPDEST PUSH1 0x0 DUP1 REVERT JUMPDEST PUSH1 0x0 DUP1 REVERT JUMPDEST PUSH1 0x0 DUP1 REVERT JUMPDEST PUSH1 0x0 DUP1 DUP4 PUSH1 0x1F DUP5 ADD SLT PUSH2 0xC4B JUMPI PUSH2 0xC4A PUSH2 0xC26 JUMP JUMPDEST JUMPDEST DUP3 CALLDATALOAD SWAP1 POP PUSH8 0xFFFFFFFFFFFFFFFF DUP2 GT ISZERO PUSH2 0xC68 JUMPI PUSH2 0xC67 PUSH2 0xC2B JUMP JUMPDEST JUMPDEST PUSH1 0x20 DUP4 ADD SWAP2 POP DUP4 PUSH1 0x1 DUP3 MUL DUP4 ADD GT ISZERO PUSH2 0xC84 JUMPI PUSH2 0xC83 PUSH2 0xC30 JUMP JUMPDEST JUMPDEST SWAP3 POP SWAP3 SWAP1 POP JUMP JUMPDEST PUSH1 0x0 DUP2 SWAP1 POP SWAP2 SWAP1 POP JUMP JUMPDEST PUSH2 0xC9E DUP2 PUSH2 0xC8B JUMP JUMPDEST DUP2 EQ PUSH2 0xCA9 JUMPI PUSH1 0x0 DUP1 REVERT JUMPDEST POP JUMP JUMPDEST PUSH1 0x0 DUP2 CALLDATALOAD SWAP1 POP PUSH2 0xCBB DUP2 PUSH2 0xC95 JUMP JUMPDEST SWAP3 SWAP2 POP POP JUMP JUMPDEST PUSH1 0x0 DUP1 PUSH1 0x0 DUP1 PUSH1 0x0 PUSH1 0x60 DUP7 DUP9 SUB SLT ISZERO PUSH2 0xCDD JUMPI PUSH2 0xCDC PUSH2 0xC1C JUMP JUMPDEST JUMPDEST PUSH1 0x0 DUP7 ADD CALLDATALOAD PUSH8 0xFFFFFFFFFFFFFFFF DUP2 GT ISZERO PUSH2 0xCFB JUMPI PUSH2 0xCFA PUSH2 0xC21 JUMP JUMPDEST JUMPDEST PUSH2 0xD07 DUP9 DUP3 DUP10 ADD PUSH2 0xC35 JUMP JUMPDEST SWAP6 POP SWAP6 POP POP PUSH1 0x20 DUP7 ADD CALLDATALOAD PUSH8 0xFFFFFFFFFFFFFFFF DUP2 GT ISZERO PUSH2 0xD2A JUMPI PUSH2 0xD29 PUSH2 0xC21 JUMP JUMPDEST JUMPDEST PUSH2 0xD36 DUP9 DUP3 DUP10 ADD PUSH2 0xC35 JUMP JUMPDEST SWAP4 POP SWAP4 POP POP PUSH1 0x40 PUSH2 0xD49 DUP9 DUP3 DUP10 ADD PUSH2 0xCAC JUMP JUMPDEST SWAP2 POP POP SWAP3 SWAP6 POP SWAP3 SWAP6 SWAP1 SWAP4 POP JUMP JUMPDEST PUSH1 0x0 DUP2 SWAP1 POP SWAP2 SWAP1 POP JUMP JUMPDEST PUSH2 0xD69 DUP2 PUSH2 0xD56 JUMP JUMPDEST DUP2 EQ PUSH2 0xD74 JUMPI PUSH1 0x0 DUP1 REVERT JUMPDEST POP JUMP JUMPDEST PUSH1 0x0 DUP2 CALLDATALOAD SWAP1 POP PUSH2 0xD86 DUP2 PUSH2 0xD60 JUMP JUMPDEST SWAP3 SWAP2 POP POP JUMP JUMPDEST PUSH1 0x0 DUP1 PUSH1 0x40 DUP4 DUP6 SUB SLT ISZERO PUSH2 0xDA3 JUMPI PUSH2 0xDA2 PUSH2 0xC1C JUMP JUMPDEST JUMPDEST PUSH1 0x0 PUSH2 0xDB1 DUP6 DUP3 DUP7 ADD PUSH2 0xD77 JUMP JUMPDEST SWAP3 POP POP PUSH1 0x20 PUSH2 0xDC2 DUP6 DUP3 DUP7 ADD PUSH2 0xCAC JUMP JUMPDEST SWAP2 POP POP SWAP3 POP SWAP3 SWAP1 POP JUMP JUMPDEST PUSH2 0xDD5 DUP2 PUSH2 0xC8B JUMP JUMPDEST DUP3 MSTORE POP POP JUMP JUMPDEST PUSH1 0x0 PUSH1 0x20 DUP3 ADD SWAP1 POP PUSH2 0xDF0 PUSH1 0x0 DUP4 ADD DUP5 PUSH2 0xDCC JUMP JUMPDEST SWAP3 SWAP2 POP POP JUMP JUMPDEST PUSH1 0x0 DUP1 PUSH1 0x40 DUP4 DUP6 SUB SLT ISZERO PUSH2 0xE0D JUMPI PUSH2 0xE0C PUSH2 0xC1C JUMP JUMPDEST JUMPDEST PUSH1 0x0 PUSH2 0xE1B DUP6 DUP3 DUP7 ADD PUSH2 0xCAC JUMP JUMPDEST SWAP3 POP POP PUSH1 0x20 PUSH2 0xE2C DUP6 DUP3 DUP7 ADD PUSH2 0xCAC JUMP JUMPDEST SWAP2 POP POP SWAP3 POP SWAP3 SWAP1 POP JUMP JUMPDEST PUSH2 0xE3F DUP2 PUSH2 0xD56 JUMP JUMPDEST DUP3 MSTORE POP POP JUMP JUMPDEST PUSH1 0x0 PUSH1 0x20 DUP3 ADD SWAP1 POP PUSH2 0xE5A PUSH1 0x0 DUP4 ADD DUP5 PUSH2 0xE36 JUMP JUMPDEST SWAP3 SWAP2 POP POP JUMP JUMPDEST PUSH1 0x0 DUP3 DUP3 MSTORE PUSH1 0x20 DUP3 ADD SWAP1 POP SWAP3 SWAP2 POP POP JUMP JUMPDEST PUSH32 0x696E76616C696420706C61796572000000000000000000000000000000000000 PUSH1 0x0 DUP3 ADD MSTORE POP JUMP JUMPDEST PUSH1 0x0 PUSH2 0xEA7 PUSH1 0xE DUP4 PUSH2 0xE60 JUMP JUMPDEST SWAP2 POP PUSH2 0xEB2 DUP3 PUSH2 0xE71 JUMP JUMPDEST PUSH1 0x20 DUP3 ADD SWAP1 POP SWAP2 SWAP1 POP JUMP JUMPDEST PUSH1 0x0 PUSH1 0x20 DUP3 ADD SWAP1 POP DUP2 DUP2 SUB PUSH1 0x0 DUP4 ADD MSTORE PUSH2 0xED6 DUP2 PUSH2 0xE9A JUMP JUMPDEST SWAP1 POP SWAP2 SWAP1 POP JUMP JUMPDEST PUSH32 0x4E487B7100000000000000000000000000000000000000000000000000000000 PUSH1 0x0 MSTORE PUSH1 0x11 PUSH1 0x4 MSTORE PUSH1 0x24 PUSH1 0x0 REVERT JUMPDEST PUSH1 0x0 PUSH2 0xF17 DUP3 PUSH2 0xC8B JUMP JUMPDEST SWAP2 POP PUSH2 0xF22 DUP4 PUSH2 0xC8B JUMP JUMPDEST SWAP3 POP DUP3 DUP3 SUB SWAP1 POP DUP2 DUP2 GT ISZERO PUSH2 0xF3A JUMPI PUSH2 0xF39 PUSH2 0xEDD JUMP JUMPDEST JUMPDEST SWAP3 SWAP2 POP POP JUMP JUMPDEST PUSH32 0x4E487B7100000000000000000000000000000000000000000000000000000000 PUSH1 0x0 MSTORE PUSH1 0x32 PUSH1 0x4 MSTORE PUSH1 0x24 PUSH1 0x0 REVERT JUMPDEST PUSH32 0x706C6179657231206861736E2774207375626D69747465642063617264730000 PUSH1 0x0 DUP3 ADD MSTORE POP JUMP JUMPDEST PUSH1 0x0 PUSH2 0xFA5 PUSH1 0x1E DUP4 PUSH2 0xE60 JUMP JUMPDEST SWAP2 POP PUSH2 0xFB0 DUP3 PUSH2 0xF6F JUMP JUMPDEST PUSH1 0x20 DUP3 ADD SWAP1 POP SWAP2 SWAP1 POP JUMP JUMPDEST PUSH1 0x0 PUSH1 0x20 DUP3 ADD SWAP1 POP DUP2 DUP2 SUB PUSH1 0x0 DUP4 ADD MSTORE PUSH2 0xFD4 DUP2 PUSH2 0xF98 JUMP JUMPDEST SWAP1 POP SWAP2 SWAP1 POP JUMP JUMPDEST PUSH32 0x706C6179657232206861736E2774207375626D69747465642063617264730000 PUSH1 0x0 DUP3 ADD MSTORE POP JUMP JUMPDEST PUSH1 0x0 PUSH2 0x1011 PUSH1 0x1E DUP4 PUSH2 0xE60 JUMP JUMPDEST SWAP2 POP PUSH2 0x101C DUP3 PUSH2 0xFDB JUMP JUMPDEST PUSH1 0x20 DUP3 ADD SWAP1 POP SWAP2 SWAP1 POP JUMP JUMPDEST PUSH1 0x0 PUSH1 0x20 DUP3 ADD SWAP1 POP DUP2 DUP2 SUB PUSH1 0x0 DUP4 ADD MSTORE PUSH2 0x1040 DUP2 PUSH2 0x1004 JUMP JUMPDEST SWAP1 POP SWAP2 SWAP1 POP JUMP JUMPDEST PUSH32 0x696E76616C696420726F756E6400000000000000000000000000000000000000 PUSH1 0x0 DUP3 ADD MSTORE POP JUMP JUMPDEST PUSH1 0x0 PUSH2 0x107D PUSH1 0xD DUP4 PUSH2 0xE60 JUMP JUMPDEST SWAP2 POP PUSH2 0x1088 DUP3 PUSH2 0x1047 JUMP JUMPDEST PUSH1 0x20 DUP3 ADD SWAP1 POP SWAP2 SWAP1 POP JUMP JUMPDEST PUSH1 0x0 PUSH1 0x20 DUP3 ADD SWAP1 POP DUP2 DUP2 SUB PUSH1 0x0 DUP4 ADD MSTORE PUSH2 0x10AC DUP2 PUSH2 0x1070 JUMP JUMPDEST SWAP1 POP SWAP2 SWAP1 POP JUMP JUMPDEST PUSH1 0x0 DUP2 SWAP1 POP SWAP3 SWAP2 POP POP JUMP JUMPDEST DUP3 DUP2 DUP4 CALLDATACOPY PUSH1 0x0 DUP4 DUP4 ADD MSTORE POP POP POP JUMP JUMPDEST PUSH1 0x0 PUSH2 0x10D9 DUP4 DUP6 PUSH2 0x10B3 JUMP JUMPDEST SWAP4 POP PUSH2 0x10E6 DUP4 DUP6 DUP5 PUSH2 0x10BE JUMP JUMPDEST DUP3 DUP5 ADD SWAP1 POP SWAP4 SWAP3 POP POP POP JUMP JUMPDEST PUSH1 0x0 PUSH2 0x10FF DUP3 DUP7 DUP9 PUSH2 0x10CD JUMP JUMPDEST SWAP2 POP PUSH2 0x110C DUP3 DUP5 DUP7 PUSH2 0x10CD JUMP JUMPDEST SWAP2 POP DUP2 SWAP1 POP SWAP6 SWAP5 POP POP POP POP POP JUMP JUMPDEST PUSH32 0x696E76616C696420636172647300000000000000000000000000000000000000 PUSH1 0x0 DUP3 ADD MSTORE POP JUMP JUMPDEST PUSH1 0x0 PUSH2 0x1150 PUSH1 0xD DUP4 PUSH2 0xE60 JUMP JUMPDEST SWAP2 POP PUSH2 0x115B DUP3 PUSH2 0x111A JUMP JUMPDEST PUSH1 0x20 DUP3 ADD SWAP1 POP SWAP2 SWAP1 POP JUMP JUMPDEST PUSH1 0x0 PUSH1 0x20 DUP3 ADD SWAP1 POP DUP2 DUP2 SUB PUSH1 0x0 DUP4 ADD MSTORE PUSH2 0x117F DUP2 PUSH2 0x1143 JUMP JUMPDEST SWAP1 POP SWAP2 SWAP1 POP JUMP JUMPDEST PUSH1 0x0 PUSH1 0x1F NOT PUSH1 0x1F DUP4 ADD AND SWAP1 POP SWAP2 SWAP1 POP JUMP JUMPDEST PUSH1 0x0 PUSH2 0x11A3 DUP4 DUP6 PUSH2 0xE60 JUMP JUMPDEST SWAP4 POP PUSH2 0x11B0 DUP4 DUP6 DUP5 PUSH2 0x10BE JUMP JUMPDEST PUSH2 0x11B9 DUP4 PUSH2 0x1186 JUMP JUMPDEST DUP5 ADD SWAP1 POP SWAP4 SWAP3 POP POP POP JUMP JUMPDEST PUSH1 0x0 PUSH1 0x80 DUP3 ADD SWAP1 POP PUSH2 0x11D9 PUSH1 0x0 DUP4 ADD DUP10 PUSH2 0xBF2 JUMP JUMPDEST DUP2 DUP2 SUB PUSH1 0x20 DUP4 ADD MSTORE PUSH2 0x11EC DUP2 DUP8 DUP10 PUSH2 0x1197 JUMP JUMPDEST SWAP1 POP DUP2 DUP2 SUB PUSH1 0x40 DUP4 ADD MSTORE PUSH2 0x1201 DUP2 DUP6 DUP8 PUSH2 0x1197 JUMP JUMPDEST SWAP1 POP PUSH2 0x1210 PUSH1 0x60 DUP4 ADD DUP5 PUSH2 0xDCC JUMP JUMPDEST SWAP8 SWAP7 POP POP POP POP POP POP POP JUMP JUMPDEST PUSH32 0x706C61796572312068617320616C7265616479207375626D6974746564206361 PUSH1 0x0 DUP3 ADD MSTORE PUSH32 0x7264732068617368000000000000000000000000000000000000000000000000 PUSH1 0x20 DUP3 ADD MSTORE POP JUMP JUMPDEST PUSH1 0x0 PUSH2 0x1277 PUSH1 0x28 DUP4 PUSH2 0xE60 JUMP JUMPDEST SWAP2 POP PUSH2 0x1282 DUP3 PUSH2 0x121B JUMP JUMPDEST PUSH1 0x40 DUP3 ADD SWAP1 POP SWAP2 SWAP1 POP JUMP JUMPDEST PUSH1 0x0 PUSH1 0x20 DUP3 ADD SWAP1 POP DUP2 DUP2 SUB PUSH1 0x0 DUP4 ADD MSTORE PUSH2 0x12A6 DUP2 PUSH2 0x126A JUMP JUMPDEST SWAP1 POP SWAP2 SWAP1 POP JUMP JUMPDEST PUSH1 0x0 PUSH1 0x60 DUP3 ADD SWAP1 POP PUSH2 0x12C2 PUSH1 0x0 DUP4 ADD DUP7 PUSH2 0xBF2 JUMP JUMPDEST PUSH2 0x12CF PUSH1 0x20 DUP4 ADD DUP6 PUSH2 0xE36 JUMP JUMPDEST PUSH2 0x12DC PUSH1 0x40 DUP4 ADD DUP5 PUSH2 0xDCC JUMP JUMPDEST SWAP5 SWAP4 POP POP POP POP JUMP JUMPDEST PUSH32 0x706C61796572322068617320616C7265616479207375626D6974746564206361 PUSH1 0x0 DUP3 ADD MSTORE PUSH32 0x7264732068617368000000000000000000000000000000000000000000000000 PUSH1 0x20 DUP3 ADD MSTORE POP JUMP JUMPDEST PUSH1 0x0 PUSH2 0x1340 PUSH1 0x28 DUP4 PUSH2 0xE60 JUMP JUMPDEST SWAP2 POP PUSH2 0x134B DUP3 PUSH2 0x12E4 JUMP JUMPDEST PUSH1 0x40 DUP3 ADD SWAP1 POP SWAP2 SWAP1 POP JUMP JUMPDEST PUSH1 0x0 PUSH1 0x20 DUP3 ADD SWAP1 POP DUP2 DUP2 SUB PUSH1 0x0 DUP4 ADD MSTORE PUSH2 0x136F DUP2 PUSH2 0x1333 JUMP JUMPDEST SWAP1 POP SWAP2 SWAP1 POP JUMP JUMPDEST PUSH32 0x696E76616C69642063726561746F720000000000000000000000000000000000 PUSH1 0x0 DUP3 ADD MSTORE POP JUMP JUMPDEST PUSH1 0x0 PUSH2 0x13AC PUSH1 0xF DUP4 PUSH2 0xE60 JUMP JUMPDEST SWAP2 POP PUSH2 0x13B7 DUP3 PUSH2 0x1376 JUMP JUMPDEST PUSH1 0x20 DUP3 ADD SWAP1 POP SWAP2 SWAP1 POP JUMP JUMPDEST PUSH1 0x0 PUSH1 0x20 DUP3 ADD SWAP1 POP DUP2 DUP2 SUB PUSH1 0x0 DUP4 ADD MSTORE PUSH2 0x13DB DUP2 PUSH2 0x139F JUMP JUMPDEST SWAP1 POP SWAP2 SWAP1 POP JUMP JUMPDEST PUSH1 0x0 PUSH2 0x13ED DUP3 PUSH2 0xC8B JUMP JUMPDEST SWAP2 POP PUSH2 0x13F8 DUP4 PUSH2 0xC8B JUMP JUMPDEST SWAP3 POP DUP3 DUP3 ADD SWAP1 POP DUP1 DUP3 GT ISZERO PUSH2 0x1410 JUMPI PUSH2 0x140F PUSH2 0xEDD JUMP JUMPDEST JUMPDEST SWAP3 SWAP2 POP POP JUMP INVALID LOG2 PUSH5 0x6970667358 0x22 SLT KECCAK256 CHAINID SHR RETURNDATACOPY CALLDATACOPY BLOBBASEFEE 0xF8 0xCA PUSH7 0xF142F0E84F2AAE MSIZE BLOBHASH MSIZE PUSH32 0xACF61ACF4DAB89E887D2BCE82764736F6C634300081C00330000000000000000 "},"methodIdentifiers":{"StartANewRound()":"f1871164","SubmitCards(string,string,uint256)":"263616a1","SubmitCardsHash(bytes32,uint256)":"2e2ebd23","cardsHash(uint256,uint256)":"dd337a96","creator()":"02d05d3f","currentRound()":"8a19c8bc","initialHP()":"2fab3323","launchTime()":"790ca413","player1()":"d30895e4","player2()":"59a5f12d","roundTimeout()":"53c298d8","totalRound()":"d0421a28"}}}}}