{
  "_format": "hh-sol-artifact-1",
  "contractName": "PlayerState",
  "sourceName": "contracts/PlayerState.sol",
  "abi": [
    {
      "inputs": [],
      "stateMutability": "nonpayable",
      "type": "constructor"
    },
    {
      "inputs": [
        {
          "internalType": "address",
          "name": "manager",
          "type": "address"
        }
      ],
      "name": "AddManager",
      "outputs": [],
      "stateMutability": "nonpayable",
      "type": "function"
    },
    {
      "inputs": [
        {
          "internalType": "address",
          "name": "player",
          "type": "address"
        }
      ],
      "name": "AddPlayerIfInexist",
      "outputs": [],
      "stateMutability": "nonpayable",
      "type": "function"
    },
    {
      "inputs": [
        {
          "internalType": "string",
          "name": "propertyName",
          "type": "string"
        }
      ],
      "name": "AddProperty",
      "outputs": [],
      "stateMutability": "nonpayable",
      "type": "function"
    },
    {
      "inputs": [
        {
          "internalType": "address",
          "name": "player",
          "type": "address"
        }
      ],
      "name": "Get",
      "outputs": [
        {
          "components": [
            {
              "internalType": "uint256",
              "name": "Credits",
              "type": "uint256"
            },
            {
              "internalType": "uint256",
              "name": "TokenAmount",
              "type": "uint256"
            }
          ],
          "internalType": "struct PlayerState.PlayerStorage",
          "name": "",
          "type": "tuple"
        }
      ],
      "stateMutability": "view",
      "type": "function"
    },
    {
      "inputs": [
        {
          "internalType": "address",
          "name": "player",
          "type": "address"
        }
      ],
      "name": "GetCredits",
      "outputs": [
        {
          "internalType": "uint256",
          "name": "",
          "type": "uint256"
        }
      ],
      "stateMutability": "view",
      "type": "function"
    },
    {
      "inputs": [
        {
          "internalType": "address",
          "name": "player",
          "type": "address"
        }
      ],
      "name": "GetTokenAmount",
      "outputs": [
        {
          "internalType": "uint256",
          "name": "",
          "type": "uint256"
        }
      ],
      "stateMutability": "view",
      "type": "function"
    },
    {
      "inputs": [
        {
          "internalType": "uint256",
          "name": "",
          "type": "uint256"
        }
      ],
      "name": "Manager",
      "outputs": [
        {
          "internalType": "address",
          "name": "",
          "type": "address"
        }
      ],
      "stateMutability": "view",
      "type": "function"
    },
    {
      "inputs": [
        {
          "internalType": "address",
          "name": "",
          "type": "address"
        }
      ],
      "name": "ManagerIndex",
      "outputs": [
        {
          "internalType": "uint256",
          "name": "",
          "type": "uint256"
        }
      ],
      "stateMutability": "view",
      "type": "function"
    },
    {
      "inputs": [
        {
          "internalType": "address",
          "name": "",
          "type": "address"
        }
      ],
      "name": "PlayerData",
      "outputs": [
        {
          "internalType": "uint256",
          "name": "Credits",
          "type": "uint256"
        },
        {
          "internalType": "uint256",
          "name": "TokenAmount",
          "type": "uint256"
        }
      ],
      "stateMutability": "view",
      "type": "function"
    },
    {
      "inputs": [
        {
          "internalType": "address",
          "name": "",
          "type": "address"
        }
      ],
      "name": "PlayerExist",
      "outputs": [
        {
          "internalType": "bool",
          "name": "",
          "type": "bool"
        }
      ],
      "stateMutability": "view",
      "type": "function"
    },
    {
      "inputs": [
        {
          "internalType": "address",
          "name": "",
          "type": "address"
        },
        {
          "internalType": "string",
          "name": "",
          "type": "string"
        }
      ],
      "name": "PlayerProperties",
      "outputs": [
        {
          "internalType": "uint256",
          "name": "",
          "type": "uint256"
        }
      ],
      "stateMutability": "view",
      "type": "function"
    },
    {
      "inputs": [
        {
          "internalType": "address",
          "name": "player",
          "type": "address"
        },
        {
          "internalType": "uint256",
          "name": "_credits",
          "type": "uint256"
        },
        {
          "internalType": "uint256",
          "name": "_tokenAmount",
          "type": "uint256"
        },
        {
          "internalType": "string",
          "name": "_propertyName",
          "type": "string"
        },
        {
          "internalType": "uint256",
          "name": "_propertyAmount",
          "type": "uint256"
        }
      ],
      "name": "Set",
      "outputs": [],
      "stateMutability": "nonpayable",
      "type": "function"
    },
    {
      "inputs": [
        {
          "internalType": "address",
          "name": "player",
          "type": "address"
        },
        {
          "internalType": "uint256",
          "name": "credits",
          "type": "uint256"
        }
      ],
      "name": "SetCredits",
      "outputs": [],
      "stateMutability": "nonpayable",
      "type": "function"
    },
    {
      "inputs": [
        {
          "internalType": "address",
          "name": "player",
          "type": "address"
        },
        {
          "internalType": "string",
          "name": "propertyName",
          "type": "string"
        },
        {
          "internalType": "uint256",
          "name": "propertyAmount",
          "type": "uint256"
        }
      ],
      "name": "SetProperty",
      "outputs": [],
      "stateMutability": "nonpayable",
      "type": "function"
    },
    {
      "inputs": [
        {
          "internalType": "address",
          "name": "player",
          "type": "address"
        },
        {
          "internalType": "uint256",
          "name": "tokenAmount",
          "type": "uint256"
        }
      ],
      "name": "SetTokenAmount",
      "outputs": [],
      "stateMutability": "nonpayable",
      "type": "function"
    }
  ],
  "bytecode": "0x6080604052348015600f57600080fd5b506006339080600181540180825580915050600190039060005260206000200160009091909190916101000a81548173ffffffffffffffffffffffffffffffffffffffff021916908373ffffffffffffffffffffffffffffffffffffffff1602179055506000600760003373ffffffffffffffffffffffffffffffffffffffff1673ffffffffffffffffffffffffffffffffffffffff16815260200190815260200160002081905550611c67806100c76000396000f3fe608060405234801561001057600080fd5b50600436106100f55760003560e01c80633dc03dc61161009757806362517301116100665780636251730114610293578063769c9ce2146102c3578063b4ab2e71146102df578063d63e85831461030f576100f5565b80633dc03dc61461020e578063502f13ba1461022a5780635ec3e62e14610246578063606ceece14610277576100f5565b8063223760e8116100d3578063223760e8146101765780632d8c8926146101a657806334da2dd5146101d65780633630096a146101f2576100f5565b806301f74f79146100fa5780630abe3e051461012a5780631aa816e614610146575b600080fd5b610114600480360381019061010f9190611148565b61033f565b604051610121919061118e565b60405180910390f35b610144600480360381019061013f91906112ef565b61038b565b005b610160600480360381019061015b9190611338565b610552565b60405161016d919061118e565b60405180910390f35b610190600480360381019061018b91906113c0565b61058d565b60405161019d91906113fc565b60405180910390f35b6101c060048036038101906101bb9190611148565b6105cc565b6040516101cd919061118e565b60405180910390f35b6101f060048036038101906101eb9190611477565b6105e4565b005b61020c60048036038101906102079190611148565b610756565b005b61022860048036038101906102239190611511565b61097f565b005b610244600480360381019061023f9190611580565b610b44565b005b610260600480360381019061025b9190611148565b610c84565b60405161026e9291906115c0565b60405180910390f35b610291600480360381019061028c9190611148565b610ca8565b005b6102ad60048036038101906102a89190611148565b610ea3565b6040516102ba9190611604565b60405180910390f35b6102dd60048036038101906102d89190611580565b610ec3565b005b6102f960048036038101906102f49190611148565b611003565b604051610306919061165d565b60405180910390f35b61032960048036038101906103249190611148565b611070565b604051610336919061118e565b60405180910390f35b6000600260008373ffffffffffffffffffffffffffffffffffffffff1673ffffffffffffffffffffffffffffffffffffffff168152602001908152602001600020600001549050919050565b600073ffffffffffffffffffffffffffffffffffffffff166006600760003373ffffffffffffffffffffffffffffffffffffffff1673ffffffffffffffffffffffffffffffffffffffff16815260200190815260200160002054815481106103f6576103f5611678565b5b9060005260206000200160009054906101000a900473ffffffffffffffffffffffffffffffffffffffff1673ffffffffffffffffffffffffffffffffffffffff1603610477576040517f08c379a000000000000000000000000000000000000000000000000000000000815260040161046e90611704565b60405180910390fd5b6004816040516104879190611795565b908152602001604051809103902060009054906101000a900460ff16156104e3576040517f08c379a00000000000000000000000000000000000000000000000000000000081526004016104da906117f8565b60405180910390fd5b6003819080600181540180825580915050600190039060005260206000200160009091909190915090816105179190611a24565b50600160048260405161052a9190611795565b908152602001604051809103902060006101000a81548160ff02191690831515021790555050565b600560205281600052604060002081805160208101820180518482526020830160208501208183528095505050505050600091509150505481565b6006818154811061059d57600080fd5b906000526020600020016000915054906101000a900473ffffffffffffffffffffffffffffffffffffffff1681565b60076020528060005260406000206000915090505481565b600073ffffffffffffffffffffffffffffffffffffffff166006600760003373ffffffffffffffffffffffffffffffffffffffff1673ffffffffffffffffffffffffffffffffffffffff168152602001908152602001600020548154811061064f5761064e611678565b5b9060005260206000200160009054906101000a900473ffffffffffffffffffffffffffffffffffffffff1673ffffffffffffffffffffffffffffffffffffffff16036106d0576040517f08c379a00000000000000000000000000000000000000000000000000000000081526004016106c790611704565b60405180910390fd5b600085146106e3576106e28686610b44565b5b600084146106f6576106f58685610ec3565b5b6000811461074e5761074d8684848080601f016020809104026020016040519081016040528093929190818152602001838380828437600081840152601f19601f820116905080830192505050505050508361097f565b5b505050505050565b600073ffffffffffffffffffffffffffffffffffffffff166006600760003373ffffffffffffffffffffffffffffffffffffffff1673ffffffffffffffffffffffffffffffffffffffff16815260200190815260200160002054815481106107c1576107c0611678565b5b9060005260206000200160009054906101000a900473ffffffffffffffffffffffffffffffffffffffff1673ffffffffffffffffffffffffffffffffffffffff1603610842576040517f08c379a000000000000000000000000000000000000000000000000000000000815260040161083990611704565b60405180910390fd5b6000600760008373ffffffffffffffffffffffffffffffffffffffff1673ffffffffffffffffffffffffffffffffffffffff16815260200190815260200160002054146108c4576040517f08c379a00000000000000000000000000000000000000000000000000000000081526004016108bb90611b42565b60405180910390fd5b6006819080600181540180825580915050600190039060005260206000200160009091909190916101000a81548173ffffffffffffffffffffffffffffffffffffffff021916908373ffffffffffffffffffffffffffffffffffffffff16021790555060016006805490506109399190611b91565b600760008373ffffffffffffffffffffffffffffffffffffffff1673ffffffffffffffffffffffffffffffffffffffff1681526020019081526020016000208190555050565b600073ffffffffffffffffffffffffffffffffffffffff166006600760003373ffffffffffffffffffffffffffffffffffffffff1673ffffffffffffffffffffffffffffffffffffffff16815260200190815260200160002054815481106109ea576109e9611678565b5b9060005260206000200160009054906101000a900473ffffffffffffffffffffffffffffffffffffffff1673ffffffffffffffffffffffffffffffffffffffff1603610a6b576040517f08c379a0000000000000000000000000000000000000000000000000000000008152600401610a6290611704565b60405180910390fd5b600482604051610a7b9190611795565b908152602001604051809103902060009054906101000a900460ff16610ad6576040517f08c379a0000000000000000000000000000000000000000000000000000000008152600401610acd90611c11565b60405180910390fd5b610adf83610ca8565b80600560008573ffffffffffffffffffffffffffffffffffffffff1673ffffffffffffffffffffffffffffffffffffffff16815260200190815260200160002083604051610b2d9190611795565b908152602001604051809103902081905550505050565b600073ffffffffffffffffffffffffffffffffffffffff166006600760003373ffffffffffffffffffffffffffffffffffffffff1673ffffffffffffffffffffffffffffffffffffffff1681526020019081526020016000205481548110610baf57610bae611678565b5b9060005260206000200160009054906101000a900473ffffffffffffffffffffffffffffffffffffffff1673ffffffffffffffffffffffffffffffffffffffff1603610c30576040517f08c379a0000000000000000000000000000000000000000000000000000000008152600401610c2790611704565b60405180910390fd5b610c3982610ca8565b80600260008473ffffffffffffffffffffffffffffffffffffffff1673ffffffffffffffffffffffffffffffffffffffff168152602001908152602001600020600001819055505050565b60026020528060005260406000206000915090508060000154908060010154905082565b600073ffffffffffffffffffffffffffffffffffffffff166006600760003373ffffffffffffffffffffffffffffffffffffffff1673ffffffffffffffffffffffffffffffffffffffff1681526020019081526020016000205481548110610d1357610d12611678565b5b9060005260206000200160009054906101000a900473ffffffffffffffffffffffffffffffffffffffff1673ffffffffffffffffffffffffffffffffffffffff1603610d94576040517f08c379a0000000000000000000000000000000000000000000000000000000008152600401610d8b90611704565b60405180910390fd5b600160008273ffffffffffffffffffffffffffffffffffffffff1673ffffffffffffffffffffffffffffffffffffffff16815260200190815260200160002060009054906101000a900460ff16610ea0576000819080600181540180825580915050600190039060005260206000200160009091909190916101000a81548173ffffffffffffffffffffffffffffffffffffffff021916908373ffffffffffffffffffffffffffffffffffffffff16021790555060018060008373ffffffffffffffffffffffffffffffffffffffff1673ffffffffffffffffffffffffffffffffffffffff16815260200190815260200160002060006101000a81548160ff0219169083151502179055505b50565b60016020528060005260406000206000915054906101000a900460ff1681565b600073ffffffffffffffffffffffffffffffffffffffff166006600760003373ffffffffffffffffffffffffffffffffffffffff1673ffffffffffffffffffffffffffffffffffffffff1681526020019081526020016000205481548110610f2e57610f2d611678565b5b9060005260206000200160009054906101000a900473ffffffffffffffffffffffffffffffffffffffff1673ffffffffffffffffffffffffffffffffffffffff1603610faf576040517f08c379a0000000000000000000000000000000000000000000000000000000008152600401610fa690611704565b60405180910390fd5b610fb882610ca8565b80600260008473ffffffffffffffffffffffffffffffffffffffff1673ffffffffffffffffffffffffffffffffffffffff168152602001908152602001600020600101819055505050565b61100b6110bc565b600260008373ffffffffffffffffffffffffffffffffffffffff1673ffffffffffffffffffffffffffffffffffffffff168152602001908152602001600020604051806040016040529081600082015481526020016001820154815250509050919050565b6000600260008373ffffffffffffffffffffffffffffffffffffffff1673ffffffffffffffffffffffffffffffffffffffff168152602001908152602001600020600101549050919050565b604051806040016040528060008152602001600081525090565b6000604051905090565b600080fd5b600080fd5b600073ffffffffffffffffffffffffffffffffffffffff82169050919050565b6000611115826110ea565b9050919050565b6111258161110a565b811461113057600080fd5b50565b6000813590506111428161111c565b92915050565b60006020828403121561115e5761115d6110e0565b5b600061116c84828501611133565b91505092915050565b6000819050919050565b61118881611175565b82525050565b60006020820190506111a3600083018461117f565b92915050565b600080fd5b600080fd5b6000601f19601f8301169050919050565b7f4e487b7100000000000000000000000000000000000000000000000000000000600052604160045260246000fd5b6111fc826111b3565b810181811067ffffffffffffffff8211171561121b5761121a6111c4565b5b80604052505050565b600061122e6110d6565b905061123a82826111f3565b919050565b600067ffffffffffffffff82111561125a576112596111c4565b5b611263826111b3565b9050602081019050919050565b82818337600083830152505050565b600061129261128d8461123f565b611224565b9050828152602081018484840111156112ae576112ad6111ae565b5b6112b9848285611270565b509392505050565b600082601f8301126112d6576112d56111a9565b5b81356112e684826020860161127f565b91505092915050565b600060208284031215611305576113046110e0565b5b600082013567ffffffffffffffff811115611323576113226110e5565b5b61132f848285016112c1565b91505092915050565b6000806040838503121561134f5761134e6110e0565b5b600061135d85828601611133565b925050602083013567ffffffffffffffff81111561137e5761137d6110e5565b5b61138a858286016112c1565b9150509250929050565b61139d81611175565b81146113a857600080fd5b50565b6000813590506113ba81611394565b92915050565b6000602082840312156113d6576113d56110e0565b5b60006113e4848285016113ab565b91505092915050565b6113f68161110a565b82525050565b600060208201905061141160008301846113ed565b92915050565b600080fd5b600080fd5b60008083601f840112611437576114366111a9565b5b8235905067ffffffffffffffff81111561145457611453611417565b5b6020830191508360018202830111156114705761146f61141c565b5b9250929050565b60008060008060008060a08789031215611494576114936110e0565b5b60006114a289828a01611133565b96505060206114b389828a016113ab565b95505060406114c489828a016113ab565b945050606087013567ffffffffffffffff8111156114e5576114e46110e5565b5b6114f189828a01611421565b9350935050608061150489828a016113ab565b9150509295509295509295565b60008060006060848603121561152a576115296110e0565b5b600061153886828701611133565b935050602084013567ffffffffffffffff811115611559576115586110e5565b5b611565868287016112c1565b9250506040611576868287016113ab565b9150509250925092565b60008060408385031215611597576115966110e0565b5b60006115a585828601611133565b92505060206115b6858286016113ab565b9150509250929050565b60006040820190506115d5600083018561117f565b6115e2602083018461117f565b9392505050565b60008115159050919050565b6115fe816115e9565b82525050565b600060208201905061161960008301846115f5565b92915050565b61162881611175565b82525050565b604082016000820151611644600085018261161f565b506020820151611657602085018261161f565b50505050565b6000604082019050611672600083018461162e565b92915050565b7f4e487b7100000000000000000000000000000000000000000000000000000000600052603260045260246000fd5b600082825260208201905092915050565b7f696e76616c6964206e6f6465206f70657261746f720000000000000000000000600082015250565b60006116ee6015836116a7565b91506116f9826116b8565b602082019050919050565b6000602082019050818103600083015261171d816116e1565b9050919050565b600081519050919050565b600081905092915050565b60005b8381101561175857808201518184015260208101905061173d565b60008484015250505050565b600061176f82611724565b611779818561172f565b935061178981856020860161173a565b80840191505092915050565b60006117a18284611764565b915081905092915050565b7f70726f706572747920616c726561647920657869737473000000000000000000600082015250565b60006117e26017836116a7565b91506117ed826117ac565b602082019050919050565b60006020820190508181036000830152611811816117d5565b9050919050565b7f4e487b7100000000000000000000000000000000000000000000000000000000600052602260045260246000fd5b6000600282049050600182168061185f57607f821691505b60208210810361187257611871611818565b5b50919050565b60008190508160005260206000209050919050565b60006020601f8301049050919050565b600082821b905092915050565b6000600883026118da7fffffffffffffffffffffffffffffffffffffffffffffffffffffffffffffffff8261189d565b6118e4868361189d565b95508019841693508086168417925050509392505050565b6000819050919050565b600061192161191c61191784611175565b6118fc565b611175565b9050919050565b6000819050919050565b61193b83611906565b61194f61194782611928565b8484546118aa565b825550505050565b600090565b611964611957565b61196f818484611932565b505050565b5b818110156119935761198860008261195c565b600181019050611975565b5050565b601f8211156119d8576119a981611878565b6119b28461188d565b810160208510156119c1578190505b6119d56119cd8561188d565b830182611974565b50505b505050565b600082821c905092915050565b60006119fb600019846008026119dd565b1980831691505092915050565b6000611a1483836119ea565b9150826002028217905092915050565b611a2d82611724565b67ffffffffffffffff811115611a4657611a456111c4565b5b611a508254611847565b611a5b828285611997565b600060209050601f831160018114611a8e5760008415611a7c578287015190505b611a868582611a08565b865550611aee565b601f198416611a9c86611878565b60005b82811015611ac457848901518255600182019150602085019450602081019050611a9f565b86831015611ae15784890151611add601f8916826119ea565b8355505b6001600288020188555050505b505050505050565b7f6d616e6167657220616c72656164792065786973747300000000000000000000600082015250565b6000611b2c6016836116a7565b9150611b3782611af6565b602082019050919050565b60006020820190508181036000830152611b5b81611b1f565b9050919050565b7f4e487b7100000000000000000000000000000000000000000000000000000000600052601160045260246000fd5b6000611b9c82611175565b9150611ba783611175565b9250828203905081811115611bbf57611bbe611b62565b5b92915050565b7f70726f706572747920646f6573206e6f74206578697374000000000000000000600082015250565b6000611bfb6017836116a7565b9150611c0682611bc5565b602082019050919050565b60006020820190508181036000830152611c2a81611bee565b905091905056fea26469706673582212209027751d866cfa0b1fb0d63689aef44f9740ddb16c1483a6b739710de3b83f9f64736f6c634300081c0033",
  "linkReferences": {},
  "deployedLinkReferences": {}
}