{
  "_format": "hh-sol-artifact-1",
  "contractName": "BatchCallDelegation",
  "sourceName": "contracts/BatchCallDelegation.sol",
  "abi": [
    {
      "inputs": [
        {
          "components": [
            {
              "internalType": "bytes",
              "name": "data",
              "type": "bytes"
            },
            {
              "internalType": "address",
              "name": "to",
              "type": "address"
            },
            {
              "internalType": "uint256",
              "name": "value",
              "type": "uint256"
            }
          ],
          "internalType": "struct BatchCallDelegation.Call[]",
          "name": "calls",
          "type": "tuple[]"
        }
      ],
      "name": "execute",
      "outputs": [],
      "stateMutability": "payable",
      "type": "function"
    }
  ],
  "bytecode": "0x6080604052348015600f57600080fd5b5061061c8061001f6000396000f3fe60806040526004361061001e5760003560e01c8063a6d0ad6114610023575b600080fd5b61003d600480360381019061003891906101c6565b61003f565b005b60005b8282905081101561014857600083838381811061006257610061610213565b5b90506020028101906100749190610247565b61007d906104ce565b90506000816020015173ffffffffffffffffffffffffffffffffffffffff16826040015183600001516040516100b39190610552565b60006040518083038185875af1925050503d80600081146100f0576040519150601f19603f3d011682016040523d82523d6000602084013e6100f5565b606091505b5050905080610139576040517f08c379a0000000000000000000000000000000000000000000000000000000008152600401610130906105c6565b60405180910390fd5b50508080600101915050610042565b505050565b6000604051905090565b600080fd5b600080fd5b600080fd5b600080fd5b600080fd5b60008083601f84011261018657610185610161565b5b8235905067ffffffffffffffff8111156101a3576101a2610166565b5b6020830191508360208202830111156101bf576101be61016b565b5b9250929050565b600080602083850312156101dd576101dc610157565b5b600083013567ffffffffffffffff8111156101fb576101fa61015c565b5b61020785828601610170565b92509250509250929050565b7f4e487b7100000000000000000000000000000000000000000000000000000000600052603260045260246000fd5b600080fd5b60008235600160600383360303811261026357610262610242565b5b80830191505092915050565b600080fd5b6000601f19601f8301169050919050565b7f4e487b7100000000000000000000000000000000000000000000000000000000600052604160045260246000fd5b6102bd82610274565b810181811067ffffffffffffffff821117156102dc576102db610285565b5b80604052505050565b60006102ef61014d565b90506102fb82826102b4565b919050565b600080fd5b600080fd5b600067ffffffffffffffff82111561032557610324610285565b5b61032e82610274565b9050602081019050919050565b82818337600083830152505050565b600061035d6103588461030a565b6102e5565b90508281526020810184848401111561037957610378610305565b5b61038484828561033b565b509392505050565b600082601f8301126103a1576103a0610161565b5b81356103b184826020860161034a565b91505092915050565b600073ffffffffffffffffffffffffffffffffffffffff82169050919050565b60006103e5826103ba565b9050919050565b6103f5816103da565b811461040057600080fd5b50565b600081359050610412816103ec565b92915050565b6000819050919050565b61042b81610418565b811461043657600080fd5b50565b60008135905061044881610422565b92915050565b6000606082840312156104645761046361026f565b5b61046e60606102e5565b9050600082013567ffffffffffffffff81111561048e5761048d610300565b5b61049a8482850161038c565b60008301525060206104ae84828501610403565b60208301525060406104c284828501610439565b60408301525092915050565b60006104da368361044e565b9050919050565b600081519050919050565b600081905092915050565b60005b838110156105155780820151818401526020810190506104fa565b60008484015250505050565b600061052c826104e1565b61053681856104ec565b93506105468185602086016104f7565b80840191505092915050565b600061055e8284610521565b915081905092915050565b600082825260208201905092915050565b7f63616c6c20726576657274656400000000000000000000000000000000000000600082015250565b60006105b0600d83610569565b91506105bb8261057a565b602082019050919050565b600060208201905081810360008301526105df816105a3565b905091905056fea2646970667358221220c69accd6e92e66d661c220fc120d4f0fd9dc2f40635cfa42b9bd1200c9c339e164736f6c634300081c0033",
  "linkReferences": {},
  "deployedLinkReferences": {}
}