{
  "_format": "hh-sol-artifact-1",
  "contractName": "MockContract",
  "sourceName": "@safe-global/mock-contract/contracts/MockContract.sol",
  "abi": [
    {
      "inputs": [],
      "stateMutability": "nonpayable",
      "type": "constructor"
    },
    {
      "stateMutability": "payable",
      "type": "fallback"
    },
    {
      "inputs": [],
      "name": "DEFAULT_FALLBACK_VALUE",
      "outputs": [
        {
          "internalType": "bytes",
          "name": "",
          "type": "bytes"
        }
      ],
      "stateMutability": "view",
      "type": "function"
    },
    {
      "inputs": [],
      "name": "MOCKS_LIST_END",
      "outputs": [
        {
          "internalType": "bytes",
          "name": "",
          "type": "bytes"
        }
      ],
      "stateMutability": "view",
      "type": "function"
    },
    {
      "inputs": [],
      "name": "MOCKS_LIST_END_HASH",
      "outputs": [
        {
          "internalType": "bytes32",
          "name": "",
          "type": "bytes32"
        }
      ],
      "stateMutability": "view",
      "type": "function"
    },
    {
      "inputs": [],
      "name": "MOCKS_LIST_START",
      "outputs": [
        {
          "internalType": "bytes32",
          "name": "",
          "type": "bytes32"
        }
      ],
      "stateMutability": "view",
      "type": "function"
    },
    {
      "inputs": [],
      "name": "SENTINEL_ANY_MOCKS",
      "outputs": [
        {
          "internalType": "bytes4",
          "name": "",
          "type": "bytes4"
        }
      ],
      "stateMutability": "view",
      "type": "function"
    },
    {
      "inputs": [
        {
          "internalType": "bytes",
          "name": "response",
          "type": "bytes"
        }
      ],
      "name": "givenAnyReturn",
      "outputs": [],
      "stateMutability": "nonpayable",
      "type": "function"
    },
    {
      "inputs": [
        {
          "internalType": "address",
          "name": "response",
          "type": "address"
        }
      ],
      "name": "givenAnyReturnAddress",
      "outputs": [],
      "stateMutability": "nonpayable",
      "type": "function"
    },
    {
      "inputs": [
        {
          "internalType": "bool",
          "name": "response",
          "type": "bool"
        }
      ],
      "name": "givenAnyReturnBool",
      "outputs": [],
      "stateMutability": "nonpayable",
      "type": "function"
    },
    {
      "inputs": [
        {
          "internalType": "uint256",
          "name": "response",
          "type": "uint256"
        }
      ],
      "name": "givenAnyReturnUint",
      "outputs": [],
      "stateMutability": "nonpayable",
      "type": "function"
    },
    {
      "inputs": [],
      "name": "givenAnyRevert",
      "outputs": [],
      "stateMutability": "nonpayable",
      "type": "function"
    },
    {
      "inputs": [
        {
          "internalType": "string",
          "name": "message",
          "type": "string"
        }
      ],
      "name": "givenAnyRevertWithMessage",
      "outputs": [],
      "stateMutability": "nonpayable",
      "type": "function"
    },
    {
      "inputs": [],
      "name": "givenAnyRunOutOfGas",
      "outputs": [],
      "stateMutability": "nonpayable",
      "type": "function"
    },
    {
      "inputs": [
        {
          "internalType": "bytes",
          "name": "call",
          "type": "bytes"
        },
        {
          "internalType": "bytes",
          "name": "response",
          "type": "bytes"
        }
      ],
      "name": "givenCalldataReturn",
      "outputs": [],
      "stateMutability": "nonpayable",
      "type": "function"
    },
    {
      "inputs": [
        {
          "internalType": "bytes",
          "name": "call",
          "type": "bytes"
        },
        {
          "internalType": "address",
          "name": "response",
          "type": "address"
        }
      ],
      "name": "givenCalldataReturnAddress",
      "outputs": [],
      "stateMutability": "nonpayable",
      "type": "function"
    },
    {
      "inputs": [
        {
          "internalType": "bytes",
          "name": "call",
          "type": "bytes"
        },
        {
          "internalType": "bool",
          "name": "response",
          "type": "bool"
        }
      ],
      "name": "givenCalldataReturnBool",
      "outputs": [],
      "stateMutability": "nonpayable",
      "type": "function"
    },
    {
      "inputs": [
        {
          "internalType": "bytes",
          "name": "call",
          "type": "bytes"
        },
        {
          "internalType": "bytes32",
          "name": "response",
          "type": "bytes32"
        }
      ],
      "name": "givenCalldataReturnBytes32",
      "outputs": [],
      "stateMutability": "nonpayable",
      "type": "function"
    },
    {
      "inputs": [
        {
          "internalType": "bytes",
          "name": "call",
          "type": "bytes"
        },
        {
          "internalType": "uint256",
          "name": "response",
          "type": "uint256"
        }
      ],
      "name": "givenCalldataReturnUint",
      "outputs": [],
      "stateMutability": "nonpayable",
      "type": "function"
    },
    {
      "inputs": [
        {
          "internalType": "bytes",
          "name": "call",
          "type": "bytes"
        }
      ],
      "name": "givenCalldataRevert",
      "outputs": [],
      "stateMutability": "nonpayable",
      "type": "function"
    },
    {
      "inputs": [
        {
          "internalType": "bytes",
          "name": "call",
          "type": "bytes"
        },
        {
          "internalType": "string",
          "name": "message",
          "type": "string"
        }
      ],
      "name": "givenCalldataRevertWithMessage",
      "outputs": [],
      "stateMutability": "nonpayable",
      "type": "function"
    },
    {
      "inputs": [
        {
          "internalType": "bytes",
          "name": "call",
          "type": "bytes"
        }
      ],
      "name": "givenCalldataRunOutOfGas",
      "outputs": [],
      "stateMutability": "nonpayable",
      "type": "function"
    },
    {
      "inputs": [
        {
          "internalType": "bytes",
          "name": "call",
          "type": "bytes"
        },
        {
          "internalType": "bytes",
          "name": "response",
          "type": "bytes"
        }
      ],
      "name": "givenMethodReturn",
      "outputs": [],
      "stateMutability": "nonpayable",
      "type": "function"
    },
    {
      "inputs": [
        {
          "internalType": "bytes",
          "name": "call",
          "type": "bytes"
        },
        {
          "internalType": "address",
          "name": "response",
          "type": "address"
        }
      ],
      "name": "givenMethodReturnAddress",
      "outputs": [],
      "stateMutability": "nonpayable",
      "type": "function"
    },
    {
      "inputs": [
        {
          "internalType": "bytes",
          "name": "call",
          "type": "bytes"
        },
        {
          "internalType": "bool",
          "name": "response",
          "type": "bool"
        }
      ],
      "name": "givenMethodReturnBool",
      "outputs": [],
      "stateMutability": "nonpayable",
      "type": "function"
    },
    {
      "inputs": [
        {
          "internalType": "bytes",
          "name": "call",
          "type": "bytes"
        },
        {
          "internalType": "bytes32",
          "name": "response",
          "type": "bytes32"
        }
      ],
      "name": "givenMethodReturnBytes32",
      "outputs": [],
      "stateMutability": "nonpayable",
      "type": "function"
    },
    {
      "inputs": [
        {
          "internalType": "bytes",
          "name": "call",
          "type": "bytes"
        },
        {
          "internalType": "uint256",
          "name": "response",
          "type": "uint256"
        }
      ],
      "name": "givenMethodReturnUint",
      "outputs": [],
      "stateMutability": "nonpayable",
      "type": "function"
    },
    {
      "inputs": [
        {
          "internalType": "bytes",
          "name": "call",
          "type": "bytes"
        }
      ],
      "name": "givenMethodRevert",
      "outputs": [],
      "stateMutability": "nonpayable",
      "type": "function"
    },
    {
      "inputs": [
        {
          "internalType": "bytes",
          "name": "call",
          "type": "bytes"
        },
        {
          "internalType": "string",
          "name": "message",
          "type": "string"
        }
      ],
      "name": "givenMethodRevertWithMessage",
      "outputs": [],
      "stateMutability": "nonpayable",
      "type": "function"
    },
    {
      "inputs": [
        {
          "internalType": "bytes",
          "name": "call",
          "type": "bytes"
        }
      ],
      "name": "givenMethodRunOutOfGas",
      "outputs": [],
      "stateMutability": "nonpayable",
      "type": "function"
    },
    {
      "inputs": [],
      "name": "invocationCount",
      "outputs": [
        {
          "internalType": "uint256",
          "name": "",
          "type": "uint256"
        }
      ],
      "stateMutability": "view",
      "type": "function"
    },
    {
      "inputs": [
        {
          "internalType": "bytes",
          "name": "call",
          "type": "bytes"
        }
      ],
      "name": "invocationCountForCalldata",
      "outputs": [
        {
          "internalType": "uint256",
          "name": "",
          "type": "uint256"
        }
      ],
      "stateMutability": "view",
      "type": "function"
    },
    {
      "inputs": [
        {
          "internalType": "bytes",
          "name": "call",
          "type": "bytes"
        }
      ],
      "name": "invocationCountForMethod",
      "outputs": [
        {
          "internalType": "uint256",
          "name": "",
          "type": "uint256"
        }
      ],
      "stateMutability": "view",
      "type": "function"
    },
    {
      "inputs": [],
      "name": "reset",
      "outputs": [],
      "stateMutability": "nonpayable",
      "type": "function"
    },
    {
      "inputs": [
        {
          "internalType": "bytes4",
          "name": "methodId",
          "type": "bytes4"
        },
        {
          "internalType": "bytes",
          "name": "originalMsgData",
          "type": "bytes"
        }
      ],
      "name": "updateInvocationCount",
      "outputs": [],
      "stateMutability": "nonpayable",
      "type": "function"
    },
    {
      "stateMutability": "payable",
      "type": "receive"
    }
  ],
  "bytecode": "0x608060405260006040516020016100169190610183565b604051602081830303815290604052600b908161003391906103ee565b5034801561004057600080fd5b506040518060400160405280600481526020017f30786666000000000000000000000000000000000000000000000000000000008152506000807f0100000000000000000000000000000000000000000000000000000000000000815260200190815260200160002090816100b591906103ee565b507f0100000000000000000000000000000000000000000000000000000000000000600560007f01000000000000000000000000000000000000000000000000000000000000007bffffffffffffffffffffffffffffffffffffffffffffffffffffffff19167bffffffffffffffffffffffffffffffffffffffffffffffffffffffff1916815260200190815260200160002060006101000a81548163ffffffff021916908360e01c02179055506104c0565b60008115159050919050565b61017d81610168565b82525050565b60006020820190506101986000830184610174565b92915050565b600081519050919050565b7f4e487b7100000000000000000000000000000000000000000000000000000000600052604160045260246000fd5b7f4e487b7100000000000000000000000000000000000000000000000000000000600052602260045260246000fd5b6000600282049050600182168061021f57607f821691505b602082108103610232576102316101d8565b5b50919050565b60008190508160005260206000209050919050565b60006020601f8301049050919050565b600082821b905092915050565b60006008830261029a7fffffffffffffffffffffffffffffffffffffffffffffffffffffffffffffffff8261025d565b6102a4868361025d565b95508019841693508086168417925050509392505050565b6000819050919050565b6000819050919050565b60006102eb6102e66102e1846102bc565b6102c6565b6102bc565b9050919050565b6000819050919050565b610305836102d0565b610319610311826102f2565b84845461026a565b825550505050565b600090565b61032e610321565b6103398184846102fc565b505050565b5b8181101561035d57610352600082610326565b60018101905061033f565b5050565b601f8211156103a25761037381610238565b61037c8461024d565b8101602085101561038b578190505b61039f6103978561024d565b83018261033e565b50505b505050565b600082821c905092915050565b60006103c5600019846008026103a7565b1980831691505092915050565b60006103de83836103b4565b9150826002028217905092915050565b6103f78261019e565b67ffffffffffffffff8111156104105761040f6101a9565b5b61041a8254610207565b610425828285610361565b600060209050601f8311600181146104585760008415610446578287015190505b61045085826103d2565b8655506104b8565b601f19841661046686610238565b60005b8281101561048e57848901518255600182019150602085019450602081019050610469565b868310156104ab57848901516104a7601f8916826103b4565b8355505b6001600288020188555050505b505050505050565b613d64806104cf6000396000f3fe6080604052600436106101f25760003560e01c80637cd96ee41161010d578063cf11ff5d116100a0578063e211b8a51161006f578063e211b8a514610695578063eb861f69146106ac578063f07da229146106d5578063f5afa9c114610700578063fa904ee01461072957610201565b8063cf11ff5d14610603578063d6fe97781461062c578063d73ca0ac14610655578063d826f88f1461067e57610201565b8063aa788c55116100dc578063aa788c551461055f578063af21ac7814610588578063b3901f29146105b1578063c6ee167f146105da57610201565b80637cd96ee4146104b957806387abab65146104e45780639a1dc86b1461050d5780639eaeed751461053657610201565b8063586984a41161018557806367aad04a1161015457806367aad04a14610413578063682b47971461043e57806368ab6f2f146104675780636f4007561461049057610201565b8063586984a41461035b57806358cbc025146103985780635a3855ab146103c157806361936594146103ea57610201565b80632ed238dc116101c15780632ed238dc146102b357806336ff0ee5146102de5780633956dc6b146103075780634937c4f61461031e57610201565b80630a20119f1461020b5780630f91beea14610236578063122aea811461025f57806321fed4d61461028a57610201565b36610201576101ff610752565b005b610209610752565b005b34801561021757600080fd5b50610220610e41565b60405161022d9190612994565b60405180910390f35b34801561024257600080fd5b5061025d60048036038101906102589190612a5e565b610e4b565b005b34801561026b57600080fd5b50610274610ebd565b6040516102819190612b4e565b60405180910390f35b34801561029657600080fd5b506102b160048036038101906102ac9190612b70565b610ee1565b005b3480156102bf57600080fd5b506102c8610f7b565b6040516102d59190612bcc565b60405180910390f35b3480156102ea57600080fd5b5061030560048036038101906103009190612c1f565b610fbb565b005b34801561031357600080fd5b5061031c610fe6565b005b34801561032a57600080fd5b5061034560048036038101906103409190612b70565b611013565b6040516103529190612994565b60405180910390f35b34801561036757600080fd5b50610382600480360381019061037d9190612b70565b6110ac565b60405161038f9190612994565b60405180910390f35b3480156103a457600080fd5b506103bf60048036038101906103ba9190612dd4565b6110f6565b005b3480156103cd57600080fd5b506103e860048036038101906103e39190612e30565b61122c565b005b3480156103f657600080fd5b50610411600480360381019061040c9190612e90565b61129e565b005b34801561041f57600080fd5b50610428611336565b6040516104359190612bcc565b60405180910390f35b34801561044a57600080fd5b5061046560048036038101906104609190612f6f565b61135a565b005b34801561047357600080fd5b5061048e60048036038101906104899190612b70565b611384565b005b34801561049c57600080fd5b506104b760048036038101906104b29190612e30565b61145d565b005b3480156104c557600080fd5b506104ce6114cf565b6040516104db9190612b4e565b60405180910390f35b3480156104f057600080fd5b5061050b60048036038101906105069190612ff2565b611508565b005b34801561051957600080fd5b50610534600480360381019061052f919061303f565b611549565b005b34801561054257600080fd5b5061055d6004803603810190610558919061303f565b611685565b005b34801561056b57600080fd5b5061058660048036038101906105819190612b70565b611750565b005b34801561059457600080fd5b506105af60048036038101906105aa91906130ec565b611829565b005b3480156105bd57600080fd5b506105d860048036038101906105d39190613119565b61183d565b005b3480156105e657600080fd5b5061060160048036038101906105fc9190612e90565b6118ae565b005b34801561060f57600080fd5b5061062a60048036038101906106259190613119565b611946565b005b34801561063857600080fd5b50610653600480360381019061064e9190612b70565b6119b7565b005b34801561066157600080fd5b5061067c60048036038101906106779190613179565b611a08565b005b34801561068a57600080fd5b50610693611a63565b005b3480156106a157600080fd5b506106aa6121ca565b005b3480156106b857600080fd5b506106d360048036038101906106ce9190612b70565b612216565b005b3480156106e157600080fd5b506106ea6122ec565b6040516106f791906131e8565b60405180910390f35b34801561070c57600080fd5b5061072760048036038101906107229190613179565b612310565b005b34801561073557600080fd5b50610750600480360381019061074b9190612a5e565b61236b565b005b600080357fffffffff000000000000000000000000000000000000000000000000000000001690506001600281111561078e5761078d613203565b5b60016000366040516107a1929190613262565b908152602001604051809103902060009054906101000a900460ff1660028111156107cf576107ce613203565b5b036108315760036000366040516107e7929190613262565b90815260200160405180910390206040517f08c379a00000000000000000000000000000000000000000000000000000000081526004016108289190613385565b60405180910390fd5b60028081111561084457610843613203565b5b6001600036604051610857929190613262565b908152602001604051809103902060009054906101000a900460ff16600281111561088557610884613203565b5b03610893576108926123dd565b5b600060026000366040516108a8929190613262565b908152602001604051809103902080546108c1906132aa565b80601f01602080910402602001604051908101604052809291908181526020018280546108ed906132aa565b801561093a5780601f1061090f5761010080835404028352916020019161093a565b820191906000526020600020905b81548152906001019060200180831161091d57829003601f168201915b505050505090506000815103610bd0576001600281111561095e5761095d613203565b5b60066000847bffffffffffffffffffffffffffffffffffffffffffffffffffffffff19167bffffffffffffffffffffffffffffffffffffffffffffffffffffffff1916815260200190815260200160002060009054906101000a900460ff1660028111156109cf576109ce613203565b5b03610a615760086000837bffffffffffffffffffffffffffffffffffffffffffffffffffffffff19167bffffffffffffffffffffffffffffffffffffffffffffffffffffffff191681526020019081526020016000206040517f08c379a0000000000000000000000000000000000000000000000000000000008152600401610a589190613385565b60405180910390fd5b600280811115610a7457610a73613203565b5b60066000847bffffffffffffffffffffffffffffffffffffffffffffffffffffffff19167bffffffffffffffffffffffffffffffffffffffffffffffffffffffff1916815260200190815260200160002060009054906101000a900460ff166002811115610ae557610ae4613203565b5b03610af357610af26123dd565b5b60076000837bffffffffffffffffffffffffffffffffffffffffffffffffffffffff19167bffffffffffffffffffffffffffffffffffffffffffffffffffffffff191681526020019081526020016000208054610b4f906132aa565b80601f0160208091040260200160405190810160405280929190818152602001828054610b7b906132aa565b8015610bc85780601f10610b9d57610100808354040283529160200191610bc8565b820191906000526020600020905b815481529060010190602001808311610bab57829003601f168201915b505050505090505b6000815103610d235760016002811115610bed57610bec613203565b5b600a60009054906101000a900460ff166002811115610c0f57610c0e613203565b5b03610c5257600c6040517f08c379a0000000000000000000000000000000000000000000000000000000008152600401610c499190613385565b60405180910390fd5b600280811115610c6557610c64613203565b5b600a60009054906101000a900460ff166002811115610c8757610c86613203565b5b03610c9557610c946123dd565b5b600b8054610ca2906132aa565b80601f0160208091040260200160405190810160405280929190818152602001828054610cce906132aa565b8015610d1b5780601f10610cf057610100808354040283529160200191610d1b565b820191906000526020600020905b815481529060010190602001808311610cfe57829003601f168201915b505050505090505b60003073ffffffffffffffffffffffffffffffffffffffff16620186a084600036604051602401610d56939291906133d4565b6040516020818303038152906040527f58cbc025000000000000000000000000000000000000000000000000000000007bffffffffffffffffffffffffffffffffffffffffffffffffffffffff19166020820180517bffffffffffffffffffffffffffffffffffffffffffffffffffffffff8381831617835250505050604051610de09190613437565b60006040518083038160008787f1925050503d8060008114610e1e576040519150601f19603f3d011682016040523d82523d6000602084013e610e23565b606091505b509150506000815114610e3957610e3861344e565b5b815182602001f35b6000600d54905090565b610eb883838080601f016020809104026020016040519081016040528093929190818152602001838380828437600081840152601f19601f8201169050808301925050505050505082604051602001610ea49190612bcc565b604051602081830303815290604052612402565b505050565b6000604051602001610ecf919061348c565b60405160208183030381529060405281565b600260018383604051610ef5929190613262565b908152602001604051809103902060006101000a81548160ff02191690836002811115610f2557610f24613203565b5b0217905550610f7782828080601f016020809104026020016040519081016040528093929190818152602001838380828437600081840152601f19601f82011690508083019250505050505050612482565b5050565b6040518060400160405280600481526020017f30786666000000000000000000000000000000000000000000000000000000008152508051906020012081565b600081610fc9576000610fcc565b60015b60ff169050610fe2610fdd8261254a565b6125a7565b5050565b6002600a60006101000a81548160ff0219169083600281111561100c5761100b613203565b5b0217905550565b60008061106384848080601f016020809104026020016040519081016040528093929190818152602001838380828437600081840152601f19601f820116905080830192505050505050506125e5565b905060096000600e548360405160200161107e9291906134e9565b6040516020818303038152906040528051906020012081526020019081526020016000205491505092915050565b600060046000600e5485856040516020016110c993929190613515565b60405160208183030381529060405280519060200120815260200190815260200160002054905092915050565b3073ffffffffffffffffffffffffffffffffffffffff163373ffffffffffffffffffffffffffffffffffffffff1614611164576040517f08c379a000000000000000000000000000000000000000000000000000000000815260040161115b906135b1565b60405180910390fd5b6001600d60008282546111779190613600565b92505081905550600160096000600e54856040516020016111999291906134e9565b60405160208183030381529060405280519060200120815260200190815260200160002060008282546111cc9190613600565b92505081905550600160046000600e54846040516020016111ee929190613634565b60405160208183030381529060405280519060200120815260200190815260200160002060008282546112219190613600565b925050819055505050565b60008161123a57600061123d565b60015b60ff16905061129884848080601f016020809104026020016040519081016040528093929190818152602001838380828437600081840152601f19601f820116905080830192505050505050506112938361254a565b612402565b50505050565b61133084848080601f016020809104026020016040519081016040528093929190818152602001838380828437600081840152601f19601f8201169050808301925050505050505083838080601f016020809104026020016040519081016040528093929190818152602001838380828437600081840152601f19601f82011690508083019250505050505050612402565b50505050565b7f010000000000000000000000000000000000000000000000000000000000000081565b61138161137c8273ffffffffffffffffffffffffffffffffffffffff1661254a565b6125a7565b50565b60006113d383838080601f016020809104026020016040519081016040528093929190818152602001838380828437600081840152601f19601f820116905080830192505050505050506125e5565b9050600260066000837bffffffffffffffffffffffffffffffffffffffffffffffffffffffff19167bffffffffffffffffffffffffffffffffffffffffffffffffffffffff1916815260200190815260200160002060006101000a81548160ff0219169083600281111561144a57611449613203565b5b021790555061145881612683565b505050565b60008161146b57600061146e565b60015b60ff1690506114c984848080601f016020809104026020016040519081016040528093929190818152602001838380828437600081840152601f19601f820116905080830192505050505050506114c48361254a565b612887565b50505050565b6040518060400160405280600481526020017f307866660000000000000000000000000000000000000000000000000000000081525081565b6001600a60006101000a81548160ff0219169083600281111561152e5761152d613203565b5b02179055508181600c91826115449291906137fe565b505050565b600061159885858080601f016020809104026020016040519081016040528093929190818152602001838380828437600081840152601f19601f820116905080830192505050505050506125e5565b9050600160066000837bffffffffffffffffffffffffffffffffffffffffffffffffffffffff19167bffffffffffffffffffffffffffffffffffffffffffffffffffffffff1916815260200190815260200160002060006101000a81548160ff0219169083600281111561160f5761160e613203565b5b0217905550828260086000847bffffffffffffffffffffffffffffffffffffffffffffffffffffffff19167bffffffffffffffffffffffffffffffffffffffffffffffffffffffff1916815260200190815260200160002091826116749291906137fe565b5061167e81612683565b5050505050565b6001808585604051611698929190613262565b908152602001604051809103902060006101000a81548160ff021916908360028111156116c8576116c7613203565b5b02179055508181600386866040516116e1929190613262565b908152602001604051809103902091826116fc9291906137fe565b5061174a84848080601f016020809104026020016040519081016040528093929190818152602001838380828437600081840152601f19601f82011690508083019250505050505050612482565b50505050565b600061179f83838080601f016020809104026020016040519081016040528093929190818152602001838380828437600081840152601f19601f820116905080830192505050505050506125e5565b9050600160066000837bffffffffffffffffffffffffffffffffffffffffffffffffffffffff19167bffffffffffffffffffffffffffffffffffffffffffffffffffffffff1916815260200190815260200160002060006101000a81548160ff0219169083600281111561181657611815613203565b5b021790555061182481612683565b505050565b61183a6118358261254a565b6125a7565b50565b6118a983838080601f016020809104026020016040519081016040528093929190818152602001838380828437600081840152601f19601f820116905080830192505050505050506118a48373ffffffffffffffffffffffffffffffffffffffff1661254a565b612402565b505050565b61194084848080601f016020809104026020016040519081016040528093929190818152602001838380828437600081840152601f19601f8201169050808301925050505050505083838080601f016020809104026020016040519081016040528093929190818152602001838380828437600081840152601f19601f82011690508083019250505050505050612887565b50505050565b6119b283838080601f016020809104026020016040519081016040528093929190818152602001838380828437600081840152601f19601f820116905080830192505050505050506119ad8373ffffffffffffffffffffffffffffffffffffffff1661254a565b612887565b505050565b611a0482828080601f016020809104026020016040519081016040528093929190818152602001838380828437600081840152601f19601f820116905080830192505050505050506125a7565b5050565b611a5e83838080601f016020809104026020016040519081016040528093929190818152602001838380828437600081840152601f19601f82011690508083019250505050505050611a598361254a565b612402565b505050565b60008060007f010000000000000000000000000000000000000000000000000000000000000081526020019081526020016000208054611aa2906132aa565b80601f0160208091040260200160405190810160405280929190818152602001828054611ace906132aa565b8015611b1b5780601f10611af057610100808354040283529160200191611b1b565b820191906000526020600020905b815481529060010190602001808311611afe57829003601f168201915b505050505090506000818051906020012090505b6040518060400160405280600481526020017f3078666600000000000000000000000000000000000000000000000000000000815250805190602001208114611d0a576000600183604051611b849190613437565b908152602001604051809103902060006101000a81548160ff02191690836002811115611bb457611bb3613203565b5b021790555060405180602001604052806000815250600283604051611bd99190613437565b90815260200160405180910390209081611bf39190613934565b5060405180602001604052806000815250600383604051611c149190613437565b90815260200160405180910390209081611c2e9190613a06565b506000808281526020019081526020016000208054611c4c906132aa565b80601f0160208091040260200160405190810160405280929190818152602001828054611c78906132aa565b8015611cc55780601f10611c9a57610100808354040283529160200191611cc5565b820191906000526020600020905b815481529060010190602001808311611ca857829003601f168201915b50505050509150604051806020016040528060008152506000808381526020019081526020016000209081611cfa9190613934565b5081805190602001209050611b2f565b6040518060400160405280600481526020017f30786666000000000000000000000000000000000000000000000000000000008152506000807f010000000000000000000000000000000000000000000000000000000000000081526020019081526020016000209081611d7e9190613ad8565b506000600560007f01000000000000000000000000000000000000000000000000000000000000007bffffffffffffffffffffffffffffffffffffffffffffffffffffffff19167bffffffffffffffffffffffffffffffffffffffffffffffffffffffff1916815260200190815260200160002060009054906101000a900460e01b90505b7f01000000000000000000000000000000000000000000000000000000000000007bffffffffffffffffffffffffffffffffffffffffffffffffffffffff1916817bffffffffffffffffffffffffffffffffffffffffffffffffffffffff19161461209b576000819050600060066000837bffffffffffffffffffffffffffffffffffffffffffffffffffffffff19167bffffffffffffffffffffffffffffffffffffffffffffffffffffffff1916815260200190815260200160002060006101000a81548160ff02191690836002811115611ee257611ee1613203565b5b02179055506040518060200160405280600081525060076000837bffffffffffffffffffffffffffffffffffffffffffffffffffffffff19167bffffffffffffffffffffffffffffffffffffffffffffffffffffffff191681526020019081526020016000209081611f549190613934565b506040518060200160405280600081525060086000837bffffffffffffffffffffffffffffffffffffffffffffffffffffffff19167bffffffffffffffffffffffffffffffffffffffffffffffffffffffff191681526020019081526020016000209081611fc29190613a06565b5060056000827bffffffffffffffffffffffffffffffffffffffffffffffffffffffff19167bffffffffffffffffffffffffffffffffffffffffffffffffffffffff1916815260200190815260200160002060009054906101000a900460e01b9150600060e01b60056000837bffffffffffffffffffffffffffffffffffffffffffffffffffffffff19167bffffffffffffffffffffffffffffffffffffffffffffffffffffffff1916815260200190815260200160002060006101000a81548163ffffffff021916908360e01c021790555050611e03565b7f0100000000000000000000000000000000000000000000000000000000000000600560007f01000000000000000000000000000000000000000000000000000000000000007bffffffffffffffffffffffffffffffffffffffffffffffffffffffff19167bffffffffffffffffffffffffffffffffffffffffffffffffffffffff1916815260200190815260200160002060006101000a81548163ffffffff021916908360e01c0217905550600060405160200161215a919061348c565b604051602081830303815290604052600b90816121779190613ad8565b506000600a60006101000a81548160ff0219169083600281111561219e5761219d613203565b5b02179055506000600d819055506001600e60008282546121be9190613600565b92505081905550505050565b6001600a60006101000a81548160ff021916908360028111156121f0576121ef613203565b5b021790555060405180602001604052806000815250600c90816122139190613a06565b50565b6001808383604051612229929190613262565b908152602001604051809103902060006101000a81548160ff0219169083600281111561225957612258613203565b5b02179055506040518060200160405280600081525060038383604051612280929190613262565b9081526020016040518091039020908161229a9190613a06565b506122e882828080601f016020809104026020016040519081016040528093929190818152602001838380828437600081840152601f19601f82011690508083019250505050505050612482565b5050565b7f010000000000000000000000000000000000000000000000000000000000000081565b61236683838080601f016020809104026020016040519081016040528093929190818152602001838380828437600081840152601f19601f820116905080830192505050505050506123618361254a565b612887565b505050565b6123d883838080601f016020809104026020016040519081016040528093929190818152602001838380828437600081840152601f19601f82011690508083019250505050505050826040516020016123c49190612bcc565b604051602081830303815290604052612887565b505050565b5b6001156124005760006060600060c060008060066107d05a03f19050506123de565b565b60006001836040516124149190613437565b908152602001604051809103902060006101000a81548160ff0219169083600281111561244457612443613203565b5b02179055508060028360405161245a9190613437565b908152602001604051809103902090816124749190613ad8565b5061247e82612482565b5050565b600081805190602001209050600080600083815260200190815260200160002080546124ad906132aa565b905003612546576000807f0100000000000000000000000000000000000000000000000000000000000000815260200190815260200160002060008083815260200190815260200160002090816125049190613bd5565b50816000807f0100000000000000000000000000000000000000000000000000000000000000815260200190815260200160002090816125449190613ad8565b505b5050565b6060602067ffffffffffffffff81111561256757612566612ca9565b5b6040519080825280601f01601f1916602001820160405280156125995781602001600182028036833780820191505090505b509050816020820152919050565b6000600a60006101000a81548160ff021916908360028111156125cd576125cc613203565b5b021790555080600b90816125e19190613ad8565b5050565b60008060005b6004811015612679576008816126019190613cbd565b60ff60f81b85838151811061261957612618613cff565b5b602001015160f81c60f81b167effffffffffffffffffffffffffffffffffffffffffffffffffffffffffffff19167bffffffffffffffffffffffffffffffffffffffffffffffffffffffff1916901c8217915080806001019150506125eb565b5080915050919050565b600060e01b60056000837bffffffffffffffffffffffffffffffffffffffffffffffffffffffff19167bffffffffffffffffffffffffffffffffffffffffffffffffffffffff1916815260200190815260200160002060009054906101000a900460e01b7bffffffffffffffffffffffffffffffffffffffffffffffffffffffff19160361288457600560007f01000000000000000000000000000000000000000000000000000000000000007bffffffffffffffffffffffffffffffffffffffffffffffffffffffff19167bffffffffffffffffffffffffffffffffffffffffffffffffffffffff1916815260200190815260200160002060009054906101000a900460e01b60056000837bffffffffffffffffffffffffffffffffffffffffffffffffffffffff19167bffffffffffffffffffffffffffffffffffffffffffffffffffffffff1916815260200190815260200160002060006101000a81548163ffffffff021916908360e01c021790555080600560007f01000000000000000000000000000000000000000000000000000000000000007bffffffffffffffffffffffffffffffffffffffffffffffffffffffff19167bffffffffffffffffffffffffffffffffffffffffffffffffffffffff1916815260200190815260200160002060006101000a81548163ffffffff021916908360e01c02179055505b50565b6000612892836125e5565b9050600060066000837bffffffffffffffffffffffffffffffffffffffffffffffffffffffff19167bffffffffffffffffffffffffffffffffffffffffffffffffffffffff1916815260200190815260200160002060006101000a81548160ff0219169083600281111561290957612908613203565b5b02179055508160076000837bffffffffffffffffffffffffffffffffffffffffffffffffffffffff19167bffffffffffffffffffffffffffffffffffffffffffffffffffffffff19168152602001908152602001600020908161296c9190613ad8565b5061297681612683565b505050565b6000819050919050565b61298e8161297b565b82525050565b60006020820190506129a96000830184612985565b92915050565b6000604051905090565b600080fd5b600080fd5b600080fd5b600080fd5b600080fd5b60008083601f8401126129e8576129e76129c3565b5b8235905067ffffffffffffffff811115612a0557612a046129c8565b5b602083019150836001820283011115612a2157612a206129cd565b5b9250929050565b6000819050919050565b612a3b81612a28565b8114612a4657600080fd5b50565b600081359050612a5881612a32565b92915050565b600080600060408486031215612a7757612a766129b9565b5b600084013567ffffffffffffffff811115612a9557612a946129be565b5b612aa1868287016129d2565b93509350506020612ab486828701612a49565b9150509250925092565b600081519050919050565b600082825260208201905092915050565b60005b83811015612af8578082015181840152602081019050612add565b60008484015250505050565b6000601f19601f8301169050919050565b6000612b2082612abe565b612b2a8185612ac9565b9350612b3a818560208601612ada565b612b4381612b04565b840191505092915050565b60006020820190508181036000830152612b688184612b15565b905092915050565b60008060208385031215612b8757612b866129b9565b5b600083013567ffffffffffffffff811115612ba557612ba46129be565b5b612bb1858286016129d2565b92509250509250929050565b612bc681612a28565b82525050565b6000602082019050612be16000830184612bbd565b92915050565b60008115159050919050565b612bfc81612be7565b8114612c0757600080fd5b50565b600081359050612c1981612bf3565b92915050565b600060208284031215612c3557612c346129b9565b5b6000612c4384828501612c0a565b91505092915050565b60007fffffffff0000000000000000000000000000000000000000000000000000000082169050919050565b612c8181612c4c565b8114612c8c57600080fd5b50565b600081359050612c9e81612c78565b92915050565b600080fd5b7f4e487b7100000000000000000000000000000000000000000000000000000000600052604160045260246000fd5b612ce182612b04565b810181811067ffffffffffffffff82111715612d0057612cff612ca9565b5b80604052505050565b6000612d136129af565b9050612d1f8282612cd8565b919050565b600067ffffffffffffffff821115612d3f57612d3e612ca9565b5b612d4882612b04565b9050602081019050919050565b82818337600083830152505050565b6000612d77612d7284612d24565b612d09565b905082815260208101848484011115612d9357612d92612ca4565b5b612d9e848285612d55565b509392505050565b600082601f830112612dbb57612dba6129c3565b5b8135612dcb848260208601612d64565b91505092915050565b60008060408385031215612deb57612dea6129b9565b5b6000612df985828601612c8f565b925050602083013567ffffffffffffffff811115612e1a57612e196129be565b5b612e2685828601612da6565b9150509250929050565b600080600060408486031215612e4957612e486129b9565b5b600084013567ffffffffffffffff811115612e6757612e666129be565b5b612e73868287016129d2565b93509350506020612e8686828701612c0a565b9150509250925092565b60008060008060408587031215612eaa57612ea96129b9565b5b600085013567ffffffffffffffff811115612ec857612ec76129be565b5b612ed4878288016129d2565b9450945050602085013567ffffffffffffffff811115612ef757612ef66129be565b5b612f03878288016129d2565b925092505092959194509250565b600073ffffffffffffffffffffffffffffffffffffffff82169050919050565b6000612f3c82612f11565b9050919050565b612f4c81612f31565b8114612f5757600080fd5b50565b600081359050612f6981612f43565b92915050565b600060208284031215612f8557612f846129b9565b5b6000612f9384828501612f5a565b91505092915050565b60008083601f840112612fb257612fb16129c3565b5b8235905067ffffffffffffffff811115612fcf57612fce6129c8565b5b602083019150836001820283011115612feb57612fea6129cd565b5b9250929050565b60008060208385031215613009576130086129b9565b5b600083013567ffffffffffffffff811115613027576130266129be565b5b61303385828601612f9c565b92509250509250929050565b60008060008060408587031215613059576130586129b9565b5b600085013567ffffffffffffffff811115613077576130766129be565b5b613083878288016129d2565b9450945050602085013567ffffffffffffffff8111156130a6576130a56129be565b5b6130b287828801612f9c565b925092505092959194509250565b6130c98161297b565b81146130d457600080fd5b50565b6000813590506130e6816130c0565b92915050565b600060208284031215613102576131016129b9565b5b6000613110848285016130d7565b91505092915050565b600080600060408486031215613132576131316129b9565b5b600084013567ffffffffffffffff8111156131505761314f6129be565b5b61315c868287016129d2565b9350935050602061316f86828701612f5a565b9150509250925092565b600080600060408486031215613192576131916129b9565b5b600084013567ffffffffffffffff8111156131b0576131af6129be565b5b6131bc868287016129d2565b935093505060206131cf868287016130d7565b9150509250925092565b6131e281612c4c565b82525050565b60006020820190506131fd60008301846131d9565b92915050565b7f4e487b7100000000000000000000000000000000000000000000000000000000600052602160045260246000fd5b600081905092915050565b60006132498385613232565b9350613256838584612d55565b82840190509392505050565b600061326f82848661323d565b91508190509392505050565b7f4e487b7100000000000000000000000000000000000000000000000000000000600052602260045260246000fd5b600060028204905060018216806132c257607f821691505b6020821081036132d5576132d461327b565b5b50919050565b600082825260208201905092915050565b60008190508160005260206000209050919050565b6000815461330e816132aa565b61331881866132db565b9450600182166000811461333357600181146133495761337c565b60ff19831686528115156020028601935061337c565b613352856132ec565b60005b8381101561337457815481890152600182019150602081019050613355565b808801955050505b50505092915050565b6000602082019050818103600083015261339f8184613301565b905092915050565b60006133b38385612ac9565b93506133c0838584612d55565b6133c983612b04565b840190509392505050565b60006040820190506133e960008301866131d9565b81810360208301526133fc8184866133a7565b9050949350505050565b600061341182612abe565b61341b8185613232565b935061342b818560208601612ada565b80840191505092915050565b60006134438284613406565b915081905092915050565b7f4e487b7100000000000000000000000000000000000000000000000000000000600052600160045260246000fd5b61348681612be7565b82525050565b60006020820190506134a1600083018461347d565b92915050565b6000819050919050565b6134c26134bd8261297b565b6134a7565b82525050565b6000819050919050565b6134e36134de82612c4c565b6134c8565b82525050565b60006134f582856134b1565b60208201915061350582846134d2565b6004820191508190509392505050565b600061352182866134b1565b60208201915061353282848661323d565b9150819050949350505050565b7f43616e206f6e6c792062652063616c6c65642066726f6d2074686520636f6e7460008201527f7261637420697473656c66000000000000000000000000000000000000000000602082015250565b600061359b602b836132db565b91506135a68261353f565b604082019050919050565b600060208201905081810360008301526135ca8161358e565b9050919050565b7f4e487b7100000000000000000000000000000000000000000000000000000000600052601160045260246000fd5b600061360b8261297b565b91506136168361297b565b925082820190508082111561362e5761362d6135d1565b5b92915050565b600061364082856134b1565b6020820191506136508284613406565b91508190509392505050565b600082905092915050565b60006020601f8301049050919050565b600082821b905092915050565b6000600883026136b47fffffffffffffffffffffffffffffffffffffffffffffffffffffffffffffffff82613677565b6136be8683613677565b95508019841693508086168417925050509392505050565b6000819050919050565b60006136fb6136f66136f18461297b565b6136d6565b61297b565b9050919050565b6000819050919050565b613715836136e0565b61372961372182613702565b848454613684565b825550505050565b600090565b61373e613731565b61374981848461370c565b505050565b5b8181101561376d57613762600082613736565b60018101905061374f565b5050565b601f8211156137b257613783816132ec565b61378c84613667565b8101602085101561379b578190505b6137af6137a785613667565b83018261374e565b50505b505050565b600082821c905092915050565b60006137d5600019846008026137b7565b1980831691505092915050565b60006137ee83836137c4565b9150826002028217905092915050565b613808838361365c565b67ffffffffffffffff81111561382157613820612ca9565b5b61382b82546132aa565b613836828285613771565b6000601f8311600181146138655760008415613853578287013590505b61385d85826137e2565b8655506138c5565b601f198416613873866132ec565b60005b8281101561389b57848901358255600182019150602085019450602081019050613876565b868310156138b857848901356138b4601f8916826137c4565b8355505b6001600288020188555050505b50505050505050565b600081519050919050565b60008190508160005260206000209050919050565b601f82111561392f57613900816138d9565b61390984613667565b81016020851015613918578190505b61392c61392485613667565b83018261374e565b50505b505050565b61393d826138ce565b67ffffffffffffffff81111561395657613955612ca9565b5b61396082546132aa565b61396b8282856138ee565b600060209050601f83116001811461399e576000841561398c578287015190505b61399685826137e2565b8655506139fe565b601f1984166139ac866138d9565b60005b828110156139d4578489015182556001820191506020850194506020810190506139af565b868310156139f157848901516139ed601f8916826137c4565b8355505b6001600288020188555050505b505050505050565b613a0f826138ce565b67ffffffffffffffff811115613a2857613a27612ca9565b5b613a3282546132aa565b613a3d828285613771565b600060209050601f831160018114613a705760008415613a5e578287015190505b613a6885826137e2565b865550613ad0565b601f198416613a7e866132ec565b60005b82811015613aa657848901518255600182019150602085019450602081019050613a81565b86831015613ac35784890151613abf601f8916826137c4565b8355505b6001600288020188555050505b505050505050565b613ae182612abe565b67ffffffffffffffff811115613afa57613af9612ca9565b5b613b0482546132aa565b613b0f8282856138ee565b600060209050601f831160018114613b425760008415613b30578287015190505b613b3a85826137e2565b865550613ba2565b601f198416613b50866138d9565b60005b82811015613b7857848901518255600182019150602085019450602081019050613b53565b86831015613b955784890151613b91601f8916826137c4565b8355505b6001600288020188555050505b505050505050565b600081549050613bb9816132aa565b9050919050565b60008190508160005260206000209050919050565b818103613be3575050613cbb565b613bec82613baa565b67ffffffffffffffff811115613c0557613c04612ca9565b5b613c0f82546132aa565b613c1a8282856138ee565b6000601f831160018114613c495760008415613c37578287015490505b613c4185826137e2565b865550613cb4565b601f198416613c5787613bc0565b9650613c62866138d9565b60005b82811015613c8a57848901548255600182019150600185019450602081019050613c65565b86831015613ca75784890154613ca3601f8916826137c4565b8355505b6001600288020188555050505b5050505050505b565b6000613cc88261297b565b9150613cd38361297b565b9250828202613ce18161297b565b91508282048414831517613cf857613cf76135d1565b5b5092915050565b7f4e487b7100000000000000000000000000000000000000000000000000000000600052603260045260246000fdfea26469706673582212203ae5cbfe36a16822fffe202bb331cd42148a65a857a1fdfcaef96dadb9b946d864736f6c634300081c0033",
  "linkReferences": {},
  "deployedLinkReferences": {}
}