{
  "_format": "hh-sol-artifact-1",
  "contractName": "HelloWorld",
  "sourceName": "contracts/HelloWorld.sol",
  "abi": [
    {
      "inputs": [],
      "name": "test",
      "outputs": [],
      "stateMutability": "nonpayable",
      "type": "function"
    },
    {
      "inputs": [],
      "name": "testData",
      "outputs": [
        {
          "internalType": "uint256",
          "name": "",
          "type": "uint256"
        }
      ],
      "stateMutability": "view",
      "type": "function"
    }
  ],
  "bytecode": "0x60806040526001600055348015601457600080fd5b50610151806100246000396000f3fe608060405234801561001057600080fd5b50600436106100365760003560e01c8063016cbd511461003b578063f8a8fd6d14610059575b600080fd5b610043610063565b604051610050919061009d565b60405180910390f35b610061610069565b005b60005481565b600160008082825461007b91906100e7565b92505081905550565b6000819050919050565b61009781610084565b82525050565b60006020820190506100b2600083018461008e565b92915050565b7f4e487b7100000000000000000000000000000000000000000000000000000000600052601160045260246000fd5b60006100f282610084565b91506100fd83610084565b9250828201905080821115610115576101146100b8565b5b9291505056fea264697066735822122070c0598d4565d79e820a8fbf592d256da77488875128c1e582fddfc51c70db9b64736f6c634300081c0033",
  "linkReferences": {},
  "deployedLinkReferences": {}
}