{
  "_format": "hh-sol-artifact-1",
  "contractName": "RoomManager",
  "sourceName": "contracts/RoomManager.sol",
  "abi": [
    {
      "inputs": [],
      "stateMutability": "nonpayable",
      "type": "constructor"
    },
    {
      "anonymous": false,
      "inputs": [
        {
          "indexed": false,
          "internalType": "address",
          "name": "_player1",
          "type": "address"
        },
        {
          "indexed": false,
          "internalType": "address",
          "name": "_player2",
          "type": "address"
        },
        {
          "indexed": false,
          "internalType": "address",
          "name": "_player1_tmp",
          "type": "address"
        },
        {
          "indexed": false,
          "internalType": "address",
          "name": "_player2_tmp",
          "type": "address"
        },
        {
          "indexed": false,
          "internalType": "uint256",
          "name": "_totalRound",
          "type": "uint256"
        },
        {
          "indexed": false,
          "internalType": "address",
          "name": "_roomAddress",
          "type": "address"
        },
        {
          "indexed": false,
          "internalType": "uint256",
          "name": "_initialHP",
          "type": "uint256"
        }
      ],
      "name": "RoomCreated",
      "type": "event"
    },
    {
      "inputs": [
        {
          "internalType": "address",
          "name": "_player1",
          "type": "address"
        },
        {
          "internalType": "address",
          "name": "_player2",
          "type": "address"
        },
        {
          "internalType": "address",
          "name": "_player1_tmp",
          "type": "address"
        },
        {
          "internalType": "address",
          "name": "_player2_tmp",
          "type": "address"
        },
        {
          "internalType": "uint256",
          "name": "_roundTimeout",
          "type": "uint256"
        },
        {
          "internalType": "uint256",
          "name": "_totalRound",
          "type": "uint256"
        },
        {
          "internalType": "uint256",
          "name": "_initialHP",
          "type": "uint256"
        }
      ],
      "name": "CreateRoom",
      "outputs": [],
      "stateMutability": "nonpayable",
      "type": "function"
    },
    {
      "inputs": [
        {
          "internalType": "address",
          "name": "",
          "type": "address"
        },
        {
          "internalType": "uint256",
          "name": "",
          "type": "uint256"
        }
      ],
      "name": "Rooms",
      "outputs": [
        {
          "internalType": "address",
          "name": "",
          "type": "address"
        }
      ],
      "stateMutability": "view",
      "type": "function"
    },
    {
      "inputs": [
        {
          "internalType": "address",
          "name": "_newManager",
          "type": "address"
        }
      ],
      "name": "addManager",
      "outputs": [],
      "stateMutability": "nonpayable",
      "type": "function"
    },
    {
      "inputs": [
        {
          "internalType": "address",
          "name": "_creator",
          "type": "address"
        }
      ],
      "name": "listRooms",
      "outputs": [
        {
          "internalType": "address[]",
          "name": "",
          "type": "address[]"
        }
      ],
      "stateMutability": "view",
      "type": "function"
    },
    {
      "inputs": [
        {
          "internalType": "address",
          "name": "",
          "type": "address"
        }
      ],
      "name": "managerIndex",
      "outputs": [
        {
          "internalType": "uint256",
          "name": "",
          "type": "uint256"
        }
      ],
      "stateMutability": "view",
      "type": "function"
    }
  ],
  "bytecode": "0x608060405234801561001057600080fd5b506000339080600181540180825580915050600190039060005260206000200160009091909190916101000a81548173ffffffffffffffffffffffffffffffffffffffff021916908373ffffffffffffffffffffffffffffffffffffffff16021790555060016000805490506100869190610107565b600160003373ffffffffffffffffffffffffffffffffffffffff1673ffffffffffffffffffffffffffffffffffffffff1681526020019081526020016000208190555061013b565b6000819050919050565b7f4e487b7100000000000000000000000000000000000000000000000000000000600052601160045260246000fd5b6000610112826100ce565b915061011d836100ce565b9250828203905081811115610135576101346100d8565b5b92915050565b6124938061014a6000396000f3fe608060405234801561001057600080fd5b50600436106100575760003560e01c80632d06177a1461005c57806348daaef414610078578063573d44fa146100a8578063576eb81f146100d8578063c47cc979146100f4575b600080fd5b610076600480360381019061007191906108f4565b610124565b005b610092600480360381019061008d91906108f4565b610432565b60405161009f91906109df565b60405180910390f35b6100c260048036038101906100bd91906108f4565b6104ff565b6040516100cf9190610a1a565b60405180910390f35b6100f260048036038101906100ed9190610a61565b610517565b005b61010e60048036038101906101099190610b03565b610836565b60405161011b9190610b52565b60405180910390f35b600073ffffffffffffffffffffffffffffffffffffffff166000600160003373ffffffffffffffffffffffffffffffffffffffff1673ffffffffffffffffffffffffffffffffffffffff168152602001908152602001600020548154811061018f5761018e610b6d565b5b9060005260206000200160009054906101000a900473ffffffffffffffffffffffffffffffffffffffff1673ffffffffffffffffffffffffffffffffffffffff1603610210576040517f08c379a000000000000000000000000000000000000000000000000000000000815260040161020790610bf9565b60405180910390fd5b600073ffffffffffffffffffffffffffffffffffffffff168173ffffffffffffffffffffffffffffffffffffffff160361027f576040517f08c379a000000000000000000000000000000000000000000000000000000000815260040161027690610bf9565b60405180910390fd5b8073ffffffffffffffffffffffffffffffffffffffff16600080815481106102aa576102a9610b6d565b5b9060005260206000200160009054906101000a900473ffffffffffffffffffffffffffffffffffffffff1673ffffffffffffffffffffffffffffffffffffffff161415801561033857506000600160008373ffffffffffffffffffffffffffffffffffffffff1673ffffffffffffffffffffffffffffffffffffffff16815260200190815260200160002054145b610377576040517f08c379a000000000000000000000000000000000000000000000000000000000815260040161036e90610c65565b60405180910390fd5b6000819080600181540180825580915050600190039060005260206000200160009091909190916101000a81548173ffffffffffffffffffffffffffffffffffffffff021916908373ffffffffffffffffffffffffffffffffffffffff16021790555060016000805490506103ec9190610cb4565b600160008373ffffffffffffffffffffffffffffffffffffffff1673ffffffffffffffffffffffffffffffffffffffff1681526020019081526020016000208190555050565b6060600260008373ffffffffffffffffffffffffffffffffffffffff1673ffffffffffffffffffffffffffffffffffffffff1681526020019081526020016000208054806020026020016040519081016040528092919081815260200182805480156104f357602002820191906000526020600020905b8160009054906101000a900473ffffffffffffffffffffffffffffffffffffffff1673ffffffffffffffffffffffffffffffffffffffff16815260200190600101908083116104a9575b50505050509050919050565b60016020528060005260406000206000915090505481565b600073ffffffffffffffffffffffffffffffffffffffff166000600160003373ffffffffffffffffffffffffffffffffffffffff1673ffffffffffffffffffffffffffffffffffffffff168152602001908152602001600020548154811061058257610581610b6d565b5b9060005260206000200160009054906101000a900473ffffffffffffffffffffffffffffffffffffffff1673ffffffffffffffffffffffffffffffffffffffff1603610603576040517f08c379a00000000000000000000000000000000000000000000000000000000081526004016105fa90610bf9565b60405180910390fd5b86600360006101000a81548173ffffffffffffffffffffffffffffffffffffffff021916908373ffffffffffffffffffffffffffffffffffffffff16021790555085600460006101000a81548173ffffffffffffffffffffffffffffffffffffffff021916908373ffffffffffffffffffffffffffffffffffffffff16021790555084600560006101000a81548173ffffffffffffffffffffffffffffffffffffffff021916908373ffffffffffffffffffffffffffffffffffffffff16021790555083600660006101000a81548173ffffffffffffffffffffffffffffffffffffffff021916908373ffffffffffffffffffffffffffffffffffffffff160217905550600085858585338660405161071b90610884565b61072a96959493929190610ce8565b604051809103906000f080158015610746573d6000803e3d6000fd5b509050600260003373ffffffffffffffffffffffffffffffffffffffff1673ffffffffffffffffffffffffffffffffffffffff168152602001908152602001600020819080600181540180825580915050600190039060005260206000200160009091909190916101000a81548173ffffffffffffffffffffffffffffffffffffffff021916908373ffffffffffffffffffffffffffffffffffffffff1602179055507f6e93140a67954098c010f0772a0069ed959bf970083460914cc6ee8dc4b51a6d888888888786886040516108249796959493929190610d49565b60405180910390a15050505050505050565b6002602052816000526040600020818154811061085257600080fd5b906000526020600020016000915091509054906101000a900473ffffffffffffffffffffffffffffffffffffffff1681565b6116a580610db983390190565b600080fd5b600073ffffffffffffffffffffffffffffffffffffffff82169050919050565b60006108c182610896565b9050919050565b6108d1816108b6565b81146108dc57600080fd5b50565b6000813590506108ee816108c8565b92915050565b60006020828403121561090a57610909610891565b5b6000610918848285016108df565b91505092915050565b600081519050919050565b600082825260208201905092915050565b6000819050602082019050919050565b610956816108b6565b82525050565b6000610968838361094d565b60208301905092915050565b6000602082019050919050565b600061098c82610921565b610996818561092c565b93506109a18361093d565b8060005b838110156109d25781516109b9888261095c565b97506109c483610974565b9250506001810190506109a5565b5085935050505092915050565b600060208201905081810360008301526109f98184610981565b905092915050565b6000819050919050565b610a1481610a01565b82525050565b6000602082019050610a2f6000830184610a0b565b92915050565b610a3e81610a01565b8114610a4957600080fd5b50565b600081359050610a5b81610a35565b92915050565b600080600080600080600060e0888a031215610a8057610a7f610891565b5b6000610a8e8a828b016108df565b9750506020610a9f8a828b016108df565b9650506040610ab08a828b016108df565b9550506060610ac18a828b016108df565b9450506080610ad28a828b01610a4c565b93505060a0610ae38a828b01610a4c565b92505060c0610af48a828b01610a4c565b91505092959891949750929550565b60008060408385031215610b1a57610b19610891565b5b6000610b28858286016108df565b9250506020610b3985828601610a4c565b9150509250929050565b610b4c816108b6565b82525050565b6000602082019050610b676000830184610b43565b92915050565b7f4e487b7100000000000000000000000000000000000000000000000000000000600052603260045260246000fd5b600082825260208201905092915050565b7f696e76616c6964206d616e616765720000000000000000000000000000000000600082015250565b6000610be3600f83610b9c565b9150610bee82610bad565b602082019050919050565b60006020820190508181036000830152610c1281610bd6565b9050919050565b7f65786973746564206d616e616765720000000000000000000000000000000000600082015250565b6000610c4f600f83610b9c565b9150610c5a82610c19565b602082019050919050565b60006020820190508181036000830152610c7e81610c42565b9050919050565b7f4e487b7100000000000000000000000000000000000000000000000000000000600052601160045260246000fd5b6000610cbf82610a01565b9150610cca83610a01565b9250828203905081811115610ce257610ce1610c85565b5b92915050565b600060c082019050610cfd6000830189610b43565b610d0a6020830188610b43565b610d176040830187610a0b565b610d246060830186610a0b565b610d316080830185610b43565b610d3e60a0830184610a0b565b979650505050505050565b600060e082019050610d5e600083018a610b43565b610d6b6020830189610b43565b610d786040830188610b43565b610d856060830187610b43565b610d926080830186610a0b565b610d9f60a0830185610b43565b610dac60c0830184610a0b565b9897505050505050505056fe608060405234801561001057600080fd5b506040516116a53803806116a5833981810160405281019061003291906101bd565b85600960006101000a81548173ffffffffffffffffffffffffffffffffffffffff021916908373ffffffffffffffffffffffffffffffffffffffff16021790555084600a60006101000a81548173ffffffffffffffffffffffffffffffffffffffff021916908373ffffffffffffffffffffffffffffffffffffffff16021790555083600c819055508260018190555042600b81905550600160008190555081600860006101000a81548173ffffffffffffffffffffffffffffffffffffffff021916908373ffffffffffffffffffffffffffffffffffffffff16021790555080600d8190555050505050505061024a565b600080fd5b600073ffffffffffffffffffffffffffffffffffffffff82169050919050565b600061015482610129565b9050919050565b61016481610149565b811461016f57600080fd5b50565b6000815190506101818161015b565b92915050565b6000819050919050565b61019a81610187565b81146101a557600080fd5b50565b6000815190506101b781610191565b92915050565b60008060008060008060c087890312156101da576101d9610124565b5b60006101e889828a01610172565b96505060206101f989828a01610172565b955050604061020a89828a016101a8565b945050606061021b89828a016101a8565b935050608061022c89828a01610172565b92505060a061023d89828a016101a8565b9150509295509295509295565b61144c806102596000396000f3fe608060405234801561001057600080fd5b50600436106100b45760003560e01c8063790ca41311610071578063790ca413146101695780638a19c8bc14610187578063d0421a28146101a5578063d30895e4146101c3578063dd337a96146101e1578063f187116414610211576100b4565b806302d05d3f146100b9578063263616a1146100d75780632e2ebd23146100f35780632fab33231461010f57806353c298d81461012d57806359a5f12d1461014b575b600080fd5b6100c161021b565b6040516100ce9190610c01565b60405180910390f35b6100f160048036038101906100ec9190610cc1565b610241565b005b61010d60048036038101906101089190610d8c565b6106b3565b005b610117610a44565b6040516101249190610ddb565b60405180910390f35b610135610a4a565b6040516101429190610ddb565b60405180910390f35b610153610a50565b6040516101609190610c01565b60405180910390f35b610171610a76565b60405161017e9190610ddb565b60405180910390f35b61018f610a7c565b60405161019c9190610ddb565b60405180910390f35b6101ad610a82565b6040516101ba9190610ddb565b60405180910390f35b6101cb610a88565b6040516101d89190610c01565b60405180910390f35b6101fb60048036038101906101f69190610df6565b610aae565b6040516102089190610e45565b60405180910390f35b610219610adc565b005b600860009054906101000a900473ffffffffffffffffffffffffffffffffffffffff1681565b600960009054906101000a900473ffffffffffffffffffffffffffffffffffffffff1673ffffffffffffffffffffffffffffffffffffffff163373ffffffffffffffffffffffffffffffffffffffff1614806102ea5750600a60009054906101000a900473ffffffffffffffffffffffffffffffffffffffff1673ffffffffffffffffffffffffffffffffffffffff163373ffffffffffffffffffffffffffffffffffffffff16145b610329576040517f08c379a000000000000000000000000000000000000000000000000000000000815260040161032090610ebd565b60405180910390fd5b6000801b6002600160005461033e9190610f0c565b6003811061034f5761034e610f40565b5b6002020160006002811061036657610365610f40565b5b0154036103a8576040517f08c379a000000000000000000000000000000000000000000000000000000000815260040161039f90610fbb565b60405180910390fd5b6000801b600260016000546103bd9190610f0c565b600381106103ce576103cd610f40565b5b600202016001600281106103e5576103e4610f40565b5b015403610427576040517f08c379a000000000000000000000000000000000000000000000000000000000815260040161041e90611027565b60405180910390fd5b8060005414801561043c575060015460005411155b61047b576040517f08c379a000000000000000000000000000000000000000000000000000000000815260040161047290611093565b60405180910390fd5b600960009054906101000a900473ffffffffffffffffffffffffffffffffffffffff1673ffffffffffffffffffffffffffffffffffffffff163373ffffffffffffffffffffffffffffffffffffffff16036105c057848484846040516020016104e794939291906110f2565b604051602081830303815290604052805190602001206002600160005461050e9190610f0c565b6003811061051f5761051e610f40565b5b6002020160006002811061053657610535610f40565b5b015414610578576040517f08c379a000000000000000000000000000000000000000000000000000000000815260040161056f90611166565b60405180910390fd5b7fb57778228a8340017474c84eeb5d3b73cf06543b74edf776a78011b593e2877933868686866000546040516105b3969594939291906111c4565b60405180910390a16106ac565b848484846040516020016105d794939291906110f2565b60405160208183030381529060405280519060200120600260016000546105fe9190610f0c565b6003811061060f5761060e610f40565b5b6002020160016002811061062657610625610f40565b5b015414610668576040517f08c379a000000000000000000000000000000000000000000000000000000000815260040161065f90611166565b60405180910390fd5b7fb57778228a8340017474c84eeb5d3b73cf06543b74edf776a78011b593e2877933868686866000546040516106a3969594939291906111c4565b60405180910390a15b5050505050565b600960009054906101000a900473ffffffffffffffffffffffffffffffffffffffff1673ffffffffffffffffffffffffffffffffffffffff163373ffffffffffffffffffffffffffffffffffffffff16148061075c5750600a60009054906101000a900473ffffffffffffffffffffffffffffffffffffffff1673ffffffffffffffffffffffffffffffffffffffff163373ffffffffffffffffffffffffffffffffffffffff16145b61079b576040517f08c379a000000000000000000000000000000000000000000000000000000000815260040161079290610ebd565b60405180910390fd5b806000541480156107b0575060015460005411155b6107ef576040517f08c379a00000000000000000000000000000000000000000000000000000000081526004016107e690611093565b60405180910390fd5b600960009054906101000a900473ffffffffffffffffffffffffffffffffffffffff1673ffffffffffffffffffffffffffffffffffffffff163373ffffffffffffffffffffffffffffffffffffffff1603610944576000801b600260016000546108599190610f0c565b6003811061086a57610869610f40565b5b6002020160006002811061088157610880610f40565b5b0154146108c3576040517f08c379a00000000000000000000000000000000000000000000000000000000081526004016108ba9061128d565b60405180910390fd5b81600260016000546108d59190610f0c565b600381106108e6576108e5610f40565b5b600202016000600281106108fd576108fc610f40565b5b01819055507f47d16da20fbc7182e199bf669bb55176ef3a0c4fb2288b85cbe394932e024f3d3383600054604051610937939291906112ad565b60405180910390a1610a40565b6000801b600260016000546109599190610f0c565b6003811061096a57610969610f40565b5b6002020160016002811061098157610980610f40565b5b0154146109c3576040517f08c379a00000000000000000000000000000000000000000000000000000000081526004016109ba90611356565b60405180910390fd5b81600260016000546109d59190610f0c565b600381106109e6576109e5610f40565b5b600202016001600281106109fd576109fc610f40565b5b01819055507f47d16da20fbc7182e199bf669bb55176ef3a0c4fb2288b85cbe394932e024f3d3383600054604051610a37939291906112ad565b60405180910390a15b5050565b600d5481565b600c5481565b600a60009054906101000a900473ffffffffffffffffffffffffffffffffffffffff1681565b600b5481565b60005481565b60015481565b600960009054906101000a900473ffffffffffffffffffffffffffffffffffffffff1681565b60028260038110610abe57600080fd5b600202018160028110610ad057600080fd5b01600091509150505481565b600860009054906101000a900473ffffffffffffffffffffffffffffffffffffffff1673ffffffffffffffffffffffffffffffffffffffff163373ffffffffffffffffffffffffffffffffffffffff1614610b6c576040517f08c379a0000000000000000000000000000000000000000000000000000000008152600401610b63906113c2565b60405180910390fd5b6001600080828254610b7e91906113e2565b925050819055507f2725d08e118f50552c873a88cc6bb7d51493108e351080ca153086d4fcfd74a7600054604051610bb69190610ddb565b60405180910390a1565b600073ffffffffffffffffffffffffffffffffffffffff82169050919050565b6000610beb82610bc0565b9050919050565b610bfb81610be0565b82525050565b6000602082019050610c166000830184610bf2565b92915050565b600080fd5b600080fd5b600080fd5b600080fd5b600080fd5b60008083601f840112610c4b57610c4a610c26565b5b8235905067ffffffffffffffff811115610c6857610c67610c2b565b5b602083019150836001820283011115610c8457610c83610c30565b5b9250929050565b6000819050919050565b610c9e81610c8b565b8114610ca957600080fd5b50565b600081359050610cbb81610c95565b92915050565b600080600080600060608688031215610cdd57610cdc610c1c565b5b600086013567ffffffffffffffff811115610cfb57610cfa610c21565b5b610d0788828901610c35565b9550955050602086013567ffffffffffffffff811115610d2a57610d29610c21565b5b610d3688828901610c35565b93509350506040610d4988828901610cac565b9150509295509295909350565b6000819050919050565b610d6981610d56565b8114610d7457600080fd5b50565b600081359050610d8681610d60565b92915050565b60008060408385031215610da357610da2610c1c565b5b6000610db185828601610d77565b9250506020610dc285828601610cac565b9150509250929050565b610dd581610c8b565b82525050565b6000602082019050610df06000830184610dcc565b92915050565b60008060408385031215610e0d57610e0c610c1c565b5b6000610e1b85828601610cac565b9250506020610e2c85828601610cac565b9150509250929050565b610e3f81610d56565b82525050565b6000602082019050610e5a6000830184610e36565b92915050565b600082825260208201905092915050565b7f696e76616c696420706c61796572000000000000000000000000000000000000600082015250565b6000610ea7600e83610e60565b9150610eb282610e71565b602082019050919050565b60006020820190508181036000830152610ed681610e9a565b9050919050565b7f4e487b7100000000000000000000000000000000000000000000000000000000600052601160045260246000fd5b6000610f1782610c8b565b9150610f2283610c8b565b9250828203905081811115610f3a57610f39610edd565b5b92915050565b7f4e487b7100000000000000000000000000000000000000000000000000000000600052603260045260246000fd5b7f706c6179657231206861736e2774207375626d69747465642063617264730000600082015250565b6000610fa5601e83610e60565b9150610fb082610f6f565b602082019050919050565b60006020820190508181036000830152610fd481610f98565b9050919050565b7f706c6179657232206861736e2774207375626d69747465642063617264730000600082015250565b6000611011601e83610e60565b915061101c82610fdb565b602082019050919050565b6000602082019050818103600083015261104081611004565b9050919050565b7f696e76616c696420726f756e6400000000000000000000000000000000000000600082015250565b600061107d600d83610e60565b915061108882611047565b602082019050919050565b600060208201905081810360008301526110ac81611070565b9050919050565b600081905092915050565b82818337600083830152505050565b60006110d983856110b3565b93506110e68385846110be565b82840190509392505050565b60006110ff8286886110cd565b915061110c8284866110cd565b915081905095945050505050565b7f696e76616c696420636172647300000000000000000000000000000000000000600082015250565b6000611150600d83610e60565b915061115b8261111a565b602082019050919050565b6000602082019050818103600083015261117f81611143565b9050919050565b6000601f19601f8301169050919050565b60006111a38385610e60565b93506111b08385846110be565b6111b983611186565b840190509392505050565b60006080820190506111d96000830189610bf2565b81810360208301526111ec818789611197565b90508181036040830152611201818587611197565b90506112106060830184610dcc565b979650505050505050565b7f706c61796572312068617320616c7265616479207375626d697474656420636160008201527f7264732068617368000000000000000000000000000000000000000000000000602082015250565b6000611277602883610e60565b91506112828261121b565b604082019050919050565b600060208201905081810360008301526112a68161126a565b9050919050565b60006060820190506112c26000830186610bf2565b6112cf6020830185610e36565b6112dc6040830184610dcc565b949350505050565b7f706c61796572322068617320616c7265616479207375626d697474656420636160008201527f7264732068617368000000000000000000000000000000000000000000000000602082015250565b6000611340602883610e60565b915061134b826112e4565b604082019050919050565b6000602082019050818103600083015261136f81611333565b9050919050565b7f696e76616c69642063726561746f720000000000000000000000000000000000600082015250565b60006113ac600f83610e60565b91506113b782611376565b602082019050919050565b600060208201905081810360008301526113db8161139f565b9050919050565b60006113ed82610c8b565b91506113f883610c8b565b92508282019050808211156114105761140f610edd565b5b9291505056fea2646970667358221220461c3e374af8ca66f142f0e84f2aae5949597facf61acf4dab89e887d2bce82764736f6c634300081c0033a2646970667358221220573510e0dd86e7a8373044dea2ff298b39f9f3e7cea4768064868a977c1fba7664736f6c634300081c0033",
  "linkReferences": {},
  "deployedLinkReferences": {}
}